:0400000048EF00F0D5
:10000800FACF2AF0FBCF2BF0E1CF2CF0E2CF2DF086
:10001800D9CF2EF0DACF2FF0F3CF30F0F4CF31F084
:1000280019EEBCF0F0B6F0A003D094EC3CF01BD075
:10003800F0B8F0A203D08EEC3CF015D0F2BCA0A230
:1000480005D0A1A203D0E9EC3BF00DD0F2BC9DA0F5
:1000580005D09EA003D0F0EC3BF005D0F2B6F2A09C
:1000680002D052EC3CF031C0F4FF30C0F3FF2FC097
:10007800DAFF2EC0D9FF2DC0E2FF2CC0E1FF2BC054
:10008800FBFF2AC0FAFF110016EEFEF0DDEF2CF0A0
:1000980085EC3CF0020103B15FEF05F066C1D9FFC2
:1000A80067C1DAFFDF500301A26FA239E832070BFC
:1000B800E80601E0C7D002011D5101E0C3D00101EB
:1000C80068050301A86F20D0010168516625000169
:1000D800DD6F000E010167210001DE6F0301A851E9
:1000E8000001DD5D806FDE51D8A0DE05816F420E14
:1000F800826F020E836F5EEC39F0100E0301A86563
:1001080002D0A85F01D0A86BA851DEE1420E000121
:10011800CA6F020ECB6F66C1CCF067C1CDF001018A
:100128006851FC0F0001CE6F69EC34F0CAC0ABF324
:10013800CBC0ACF3CCC0ADF3CDC0AEF366C16EF0AE
:1001480067C16FF068C170F054EC36F06EC0A3F36D
:100158006FC0A4F370C0A5F371C0A6F30301AB513F
:10016800A31909E1AC51A41906E1AD51A51903E1A0
:10017800AE51A61911E0020102510F0B050A02E166
:10018800ABEF39F002510F0B030AD8A41200F1515A
:10019800D8B41200ABEF39F0020102510F0B030A79
:1001A80003E1E3519CEC3AF066C1AFF367C1B0F3E9
:1001B800030120EE07F0AF51D926B051DA22DECF85
:1001C8001EF2DECF1FF2DECF20F2DECF21F220EECC
:1001D8000CF0AF51D926B051DA22DF500F0B7DEC6D
:1001E80035F0030120EE0BF0AF51D926B051DA22D9
:1001F800DF38070B0001646F030120EE0BF0AF51ED
:10020800D926B051DA22DF500F0B0CEC3BF0AFC30C
:1002180070F0B0C371F001016851D9EC18F0AFC3A8
:1002280094F0B0C395F020EC2FF0E66A92EC22F03F
:100238000201066B076B086B096B0A6B0B6B0C6B87
:100248000D6B12000301A239E832070B030A07E01D
:10025800A239E832070B050A02E09CEF31F00201EF
:10026800A76B66C1B2F367C1B3F3020E121901E0BE
:1002780088D1030120EE01F0B251D926B351DA2218
:1002880002016251DE1809E16351DE1806E164518A
:10029800DE1803E16551DE18D8A473D104A571D125
:1002A800B2C364F0B3C365F055EC30F0000907E160
:1002B80002010251F00B0909026F99EF32F00301B4
:1002C80020EE06F0B251D926B351DA22DECFDDF0A6
:1002D800DDCFDEF0DDC06EF0DEC06FF00001706BC8
:1002E800716B01016851FC0F0001726F490E736F49
:1002F800010E746F31EC2CF0EF0E646F050E656F14
:100308009F0E666F010E676F696B100E686F14ECB5
:1003180034F0FF0E646F050E656F66C166F067C145
:1003280067F0FC0E010168250001686F696BFF0E1C
:10033800692314EC34F0660EBC6F020EBD6F9F0E7D
:10034800BE6F010EBF6FEF0EC06F050EC16F0101CA
:1003580068510C0F0001C26F0CEC0CF0AB0E646F0F
:10036800030E656F9F0E666F010E676F696B040E53
:10037800686F14EC34F066C16EF067C16FF068C145
:1003880070F054EC36F06EC0A3F36FC0A4F370C0E5
:10039800A5F371C0A6F30301A351AB1989E1A451D8
:1003A800AC1986E1A551AD1983E1A651AE1980E1DA
:1003B80020EE06F0B251D926B351DA2202010E51CD
:1003C800DE5C0F51DE5834E3030120EE06F0B25133
:1003D800D926B351DA22DECFDDF0DDCFDEF002011F
:1003E8000E510001DD5F02010F510001DE5BDD519E
:1003F80002019E5D0001DE5102019F590DE20001DC
:10040800E851E91101E154D7676B686B696B050E18
:100418006A6F01D84DD7ACD0030120EE06F0B25177
:10042800D926B351DA22DECF0EF2DDCF0FF213D088
:10043800030120EE06F0B251D926B351DA22DE507C
:10044800DE10DDE102010E29DAE10F29D8E10E6B99
:100458000F6B104B112B02010E2907E10F2905E143
:10046800102903E1112901E1CAD702510F0B080A2B
:1004780008E1E4519CEC3AF00201E5519CEC3AF0B9
:1004880007D002510F0B030A03E1E5519CEC3AF047
:10049800080E01016627000E672368510001DD6F11
:1004A800DE6B030120EE05F0B251D926B351DA22F2
:1004B800DF500F0B0001DF6FE06B0C0EDF27000E23
:1004C800E023DD51DF1903E1DE51E0193AE066C1AE
:1004D800D9FF67C1DAFFDF500301A06F0101664B46
:1004E800672B6851F40F0301B16F190EA76F66C12E
:1004F80094F067C195F0B1050001966F010E976FF2
:100508000EC298F00FC299F010C29AF011C29BF077
:10051800760E9C6F020E9D6FA7C39EF0EF0E9F6F25
:10052800050EA06F010EA16FAAEC20F0FF0E0101CD
:1005380066250301A96FFF0E010167210301AA6F58
:1005480004D00301B16BA96BAA6B02010383F00EFF
:1005580002170001E851E91101E1AAD6A9C367F021
:10056800AAC368F0B1C369F0010E6A6F01D8A0D6BA
:100578000500FA6EE851FD6EE951FE6EFF6AFA5009
:100588001200030120EE01F0B251D926B351DA224C
:1005980002011E51DE1809E11F51DE1806E1205143
:1005A800DE1803E12151DE1808E09CEC31F0020E60
:1005B8000201121901E17CD61200030120EE06F0B7
:1005C800B251D926B351DA22DECFDDF0DDCFDEF02D
:1005D800DDC06EF0DEC06FF00001706B716B010161
:1005E8006851FC0F0001726F490E736F746B010E36
:1005F80031EC2CF0EF0E646F050E656F9F0E666F81
:10060800010E676F696B100E686F14EC34F0FF0E03
:10061800646F050E656F66C166F067C167F0FC0E12
:10062800010168250001686F696BFF0E692314ECEE
:1006380034F0220EBC6F020EBD6F9F0EBE6F010E0E
:10064800BF6FEF0EC06F050EC16F010168510C0F2F
:100658000001C26F0CEC0CF0AB0E646F030E656FFB
:100668009F0E666F010E676F696B040E686F14EC5E
:1006780034F066C16EF067C16FF068C170F054EC79
:1006880036F06EC0A3F36FC0A4F370C0A5F371C0B9
:10069800A6F30301A351AB1909E1A451AC1906E172
:1006A800A551AD1903E1A651AE1903E09CEC31F058
:1006B8007ED720EE06F0B251D926B351DA220201D4
:1006C8000A51DE5C0B51DE5844E3030120EE06F0CC
:1006D800B251D926B351DA22DECFDDF0DDCFDEF01C
:1006E80002010A510001DD5F02010B510001DE5BCE
:1006F800DD5102019C5D0001DE5102019D591DE2A0
:100708000091F00E02170001E851E91113E002010F
:10071800009B000E0001676B686B696B6A6B01D800
:1007280009D00500FA6EE851FD6EE951FE6EFF6AC8
:10073800FA5012000201039336D0030120EE06F0AE
:10074800B251D926B351DA22DECF0AF2DDCF0BF24D
:1007580021D0030120EE06F0B251D926B351DA2296
:10076800DE50DE1014E102010A2911E10B290FE124
:10077800030120EE06F0B251D926B351DA22DECFBA
:100788000AF2DDCF0BF202010C4B0D2B03D09CECCF
:1007980031F00DD702010A2909E10B2907E10C29DB
:1007A80005E10D2903E10483020E03D702510F0B63
:1007B800030A03E1E5519CEC3AF0010E0201D86FFF
:1007C800B2C364F0B3C365F05CEC33F0030120EE10
:1007D80005F0B251D926B351DA22DF500F0B1BE0D6
:1007E800080EB22500017A6F000E0301B321000143
:1007F8007B6F030120EE05F0B251D926B351DA22FE
:10080800DF500F0B00017C6FEAEC16F07AC066F13E
:100818007BC067F105D0080E01016627000E67232B
:10082800010168510001DD6FDE6B030120EE05F068
:10083800B251D926B351DA22DF500F0B0001DF6F16
:10084800E06B0C0EDF27000EE023DD51DF1904E119
:10085800DE51E01901E19BD066C1D9FF67C1DAFF1B
:10086800DF500301A06F0101664B672B030120EEE7
:1008780005F0B251D926B351DA22DF500F0B00012F
:10088800DD6FDD510101685DF40F0301B16F20EEEA
:1008980005F0B251D926B351DA22DF500F0B190FE8
:1008A800A76FA05129E066C194F067C195F0B10522
:1008B8000001966F010E976F0AC298F00BC299F06B
:1008C8000CC29AF00DC29BF0320E9C6F020E9D6F07
:1008D800A7C39EF0EF0E9F6F050EA06FA16BAAEC49
:1008E80020F0FF0E010166250301A96FFF0E01012B
:1008F80067210301AA6F4FD0010168510001DD6F24
:10090800DE6B030120EE05F0B251D926B351DA228D
:10091800DF500F0B0001DF6FE06B0D0EDF27000EBD
:10092800E023DD51DF5DE051800AE16FDE51800A8E
:10093800E1592DE266C194F067C195F00301B10554
:100948000001966F010E976F0AC298F00BC299F0DA
:100958000CC29AF00DC29BF0220E9C6F020E9D6F86
:10096800A7C39EF0EF0E9F6F050EA06FA16BAAECB8
:1009780020F066C17AF067C17BF00301B105000180
:100988007C6FEAEC16F07AC066F17BC067F1030170
:10099800B16BA96BAA6B010E0201D86FD06BD16B3A
:1009A800EE6B0099038300A14DD0030120EE05F002
:1009B800B251D926B351DA22DFAA41D002010091FF
:1009C800F00E02170001E851E91116E00201009B40
:1009D800A9C367F0AAC368F0B1C369F0010E0001AA
:1009E8006A6F01D809D00500FA6EE851FD6EE95129
:1009F800FE6EFF6AFA5012000201039302BB00BBAD
:100A0800D6D500B302D000A7D2D5010E0001796F68
:100A1800A10E7A6F030E7B6F0201ED5190EC27F067
:100A280000090AE1000ED66FD76FD86FD96F0DECA9
:100A38002AF002010097BBD5F8EC21F0B8D5FFECFD
:100A480030F0B5D5F00E02170001E851E91116E0B3
:100A58000201009BA9C367F0AAC368F0B1C369F09B
:100A6800010E00016A6F01D809D00500FA6EE8513D
:100A7800FD6EE951FE6EFF6AFA501200020102BBD8
:100A880000BB95D500B302D000A791D5010E000197
:100A9800796FA10E7A6F030E7B6F0201ED5190EC16
:100AA80027F00009C9E1000ED66FD76FD86FD96F4C
:100AB8000DEC2AF0BED70001E851E911D8B41200B4
:100AC80082EC3CF00001DD6FDDB711D066C167F044
:100AD80067C168F068C169F0030E6A6F0500FA6EB5
:100AE800E851FD6EE951FE6EFF6AFA50120066C1C8
:100AF80067F067C168F068C169F0020E6A6F0500A7
:100B0800FA6EE851FD6EE951FE6EFF6AFA50120066
:100B1800020103B1AAEF09F00001C46BC56BC66BF3
:100B2800C76BC86BCD69CE69CF69D0690201F16B1B
:100B38000251F00B0209026FDAC2D1F000A510D100
:100B48007D0E1725F66EF76AFF0EF722F86A000E7B
:100B5800F8220800F5CFA2F098510001A225A36F52
:100B6800000EA2BFFF0E020199210001A46FA56B20
:100B7800A66B0C0ED890A337A437A537A637E82E56
:100B8800F9D7A3C064F0A4C065F0A5C066F0A6C0FC
:100B980067F07D0E686F696B6A6B6B6B1AEC30F0EF
:100BA80064C071F065C072F066C073F067C074F01D
:100BB8000201E25175EC36F07D0E02011C25F66E3D
:100BC800F76AFF0EF722F86A000EF8220800F5CF40
:100BD800A2F09A510001A225A36F000EA2BFFF0E3A
:100BE80002019B210001A46FA56BA66B0C0ED89087
:100BF800A337A437A537A637E82EF9D7A3C064F0E2
:100C0800A4C065F0A5C066F0A6C067F07D0E686F49
:100C1800696B6A6B6B6B1AEC30F064C071F065C07D
:100C280072F066C073F067C074F00201E35175ECAE
:100C380036F00201E25158EC2EF00201E35158EC73
:100C48002EF0A0C0A2F0A1C0A3F00201DB51000168
:100C5800A46F0201DC510001A56FA66BA76BD60E2D
:100C6800A403F3CFA8F0F4CFA9F0AA6BAB6BA5034C
:100C7800F350A927F450AA23000EAB230B0EA403AC
:100C8800F350A927F450AA23000EAB23D60EA603CF
:100C9800F350AA27F450AB230B0EA503F350AA2751
:100CA800F450AB23000EA403F350AA27F450AB234F
:100CB800D60EA703F350AB270B0EA603F350AB27B2
:100CC800000EA503F350AB27000EA403F350AB2787
:100CD800FF0EA825AC6FFF0EA921AD6FFF0EAA214C
:100CE800AE6FFF0EAB21AF6FAC51A203F3CFB0F0E4
:100CF800F4CFB1F0B26BB36BA303F350B127F45048
:100D0800B223000EB323AD51A203F350B127F45020
:100D1800B223000EB323AD51A303F350B227F4500E
:100D2800B323AE51A203F350B227F450B323AE510C
:100D3800A303F350B327AF51A203F350B327D15104
:100D48000E0D080EF324D96E040EF420DA6EB0C02E
:100D5800DEFFB1C0DEFFB2C0DEFFB3C0DEFF1DD1D3
:100D68007D0E1725F66EF76AFF0EF722F86A000E59
:100D7800F8220800F5CFA2F094510001A225A36F34
:100D8800000EA2BFFF0E020195210001A46FA56B02
:100D9800A66B0C0ED890A337A437A537A637E82E34
:100DA800F9D7A3C064F0A4C065F0A5C066F0A6C0DA
:100DB80067F07D0E686F696B6A6B6B6B1AEC30F0CD
:100DC80064C071F065C072F066C073F067C074F0FB
:100DD8000201E45175EC36F07D0E02011C25F66E19
:100DE800F76AFF0EF722F86A000EF8220800F5CF1E
:100DF800A2F096510001A225A36F000EA2BFFF0E1C
:100E0800020197210001A46FA56BA66B0C0ED89068
:100E1800A337A437A537A637E82EF9D7A3C064F0BF
:100E2800A4C065F0A5C066F0A6C067F07D0E686F27
:100E3800696B6A6B6B6B1AEC30F064C071F065C05B
:100E480072F066C073F067C074F00201E55175EC8A
:100E580036F00201E45158EC2EF00201125103E180
:100E6800E55158EC2EF0A0C0A2F0A1C0A3F022EEEC
:100E7800DBF0DECFA4F0DDCFA5F00001D1510E0DDF
:100E8800060EF324D96E040EF420DA6EDECFA6F037
:100E9800DDCFA7F0A651A86FA751A96FAA6BAB6BBE
:100EA800A829AC6F000EA921AD6F000EAA21AE6F64
:100EB800000EAB21AF6FAC51A403F3CFB0F0F4CF69
:100EC800B1F0B26BB36BA503F350B127F450B22362
:100ED800000EB323AD51A403F350B127F450B2234D
:100EE800000EB323AD51A503F350B227F450B3233A
:100EF800AE51A403F350B227F450B323AE51A50367
:100F0800F350B327AF51A403F350B327FF0EB02516
:100F1800B46FFF0EB121B56FFF0EB221B66FFF0E91
:100F2800B321B76FB451A203F3CFB8F0F4CFB9F03F
:100F3800BA6BBB6BA303F350B927F450BA23000E66
:100F4800BB23B551A203F350B927F450BA23000EBE
:100F5800BB23B551A303F350BA27F450BB23B651B2
:100F6800A203F350BA27F450BB23B651A303F3509E
:100F7800BB27B751A203F350BB27D1510E0D080E62
:100F8800F324D96E040EF420DA6EB8C0DEFFB9C0BF
:100F9800DEFFBAC0DEFFBBC0DEFF0201E95132EC62
:100FA8003AF0000901E1C8D00201E9519CEC3AF09D
:100FB8000201E95196EC36F08DC0C9F08EC0CAF036
:100FC8008FC0CBF090C0CCF0CC5107E11F0EC95DAB
:100FD800AC0ECA59DF0ECB594AE3C9C0A2F0CAC049
:100FE800A3F0CBC0A4F0CCC0A5F00D0E05D0D890CE
:100FF800A533A433A333A233E82EF9D77D0EA20379
:10100800F3CFA6F0F4CFA7F0A86BA96BA303F35016
:10101800A727F450A823000EA923A203F350A7275B
:10102800F450A823000EA9237D0EA403F350A8278B
:10103800F450A923000EA303F350A827F450A923C2
:10104800000EA203F350A827F450A9237D0EA50390
:10105800F350A927000EA403F350A927000EA303F9
:10106800F350A927000EA203F350A92749D0C9C0FD
:10107800A2F0CAC0A3F0CBC0A4F0CCC0A5F07D0EEE
:10108800A203F3CFA6F0F4CFA7F0A86BA96BA30334
:10109800F350A727F450A823000EA923A203F35066
:1010A800A727F450A823000EA9237D0EA403F3500C
:1010B800A827F450A923000EA303F350A827F4503F
:1010C800A923000EA203F350A827F450A9237D0EEC
:1010D800A503F350A927000EA403F350A927000E77
:1010E800A303F350A927000EA203F350A9270D0E5E
:1010F80005D0D890A933A833A733A633E82EF9D75B
:10110800A6C0BCF0A7C0BDF0A8C0BEF0A9C0BFF083
:10111800BC510201C85D0001C56FBD510201C9592A
:101128000001C66FBE510201CA590001C76FBF5105
:101138000201CB590001C86FD16BD1510E0D040EBD
:10114800F324D96E040EF420DA6EDE0401E08ED0AA
:10115800D1510E0D080EF324D96E040EF420DA6E68
:10116800DE50DE10DE10DE1001E180D0D151020128
:10117800DA194BE00001D1510E0D080EF324D96E97
:10118800040EF420DA6EDE50C55DDE50C659DE501E
:10119800C759DE50C8592DE2D1510E0D080EF3245F
:1011A800D96E040EF420DA6EDECFA2F0DECFA3F003
:1011B800DECFA4F0DECFA5F0C551A25DA66FC65163
:1011C800A359A76FC751A459A86FC851A559A96FAA
:1011D800D1510E0D080EF324D96E040EF420DA6EE8
:1011E800A6C0DEFFA7C0DEFFA8C0DEFFA9C0DEFFE5
:1011F8000CD0D1510E0D080EF324D96E040EF42034
:10120800DA6EDE6ADE6ADE6ADD6A0001D1510E0D31
:10121800080EF324D96E040EF420DA6EDE50CD5D8C
:10122800DE50CE59DE50CF59DE50D0591FE3D15190
:101238000E0D080EF324D96E040EF420DA6EDE507B
:10124800DE10DE10DE1012E0D1510E0D080EF32470
:10125800D96E040EF420DA6EDECFCDF0DECFCEF0FC
:10126800DECFCFF0DECFD0F0010EC46FD12B0F0E42
:10127800D16563D7C4055FE1CDC0C8F2CEC0C9F25D
:10128800CFC0CAF2D0C0CBF2D05106E1CD29FF0EB3
:10129800CE590F0ECF5918E3CDC064F0CEC065F01B
:1012A800CFC066F0D0C067F07D0E686F696B6A6B5F
:1012B8006B6B1AEC30F00C0ED890643765376637D4
:1012C8006737E82EF9D71FD0CDC0A2F0CEC0A3F063
:1012D800CFC0A4F0D0C0A5F00C0ED890A237A33789
:1012E800A437A537E82EF9D7A2C064F0A3C065F0EB
:1012F800A4C066F0A5C067F07D0E686F696B6A6B65
:101308006B6B1AEC30F064C0C0F065C0C1F066C009
:10131800C2F067C0C3F0C0C071F0C1C072F0C2C0F3
:1013280073F0C3C074F00201E95175EC36F00201A4
:10133800E95158EC2EF0020E02011219D8A412003D
:101348000251F00B0809026F99EF32F082EC3CF081
:101358000001A26FA2A90ED0676B686B696B020EC1
:101368006A6F0500FA6EE851FD6EE951FE6EFF6A7C
:10137800FA501200E851E911D8B41200676B686B93
:10138800696B030E6A6F0500FA6EE851FD6EE9514C
:10139800FE6EFF6AFA50120081C169F0000E6A6F92
:1013A8006EEC28F069C171F06AC172F06BC173F01C
:1013B8006CC174F000EC28F00101845142EC29F072
:1013C8000101810501E0B6D177C166F0390E6FECF5
:1013D8003AF08BC17FF0010E00017F170101D89010
:1013E8008A350001806F01018339F00B00018011FB
:1013F8007F11666F1D0E6FEC3AF07EC07FF0030E12
:1014080000017F1785C180F0010E8017D8908037C2
:10141800D890803701018239F00B000180117F11CB
:10142800666F1E0E6FEC3AF001018751881160E07B
:1014380087C182F088C183F00001846B856B42D03C
:1014480082C064F083C065F084C066F085C067F030
:101458007D0E0001686F696B6A6B6B6B9CEC2EF0FC
:1014680022D082C064F083C065F084C066F085C075
:1014780067F0FA0E0001686F696B6A6B6B6B9CEC26
:101488002EF011D082C064F083C065F084C066F08D
:1014980085C067F0F40E0001686F010E696F6A6B12
:1014A8006B6B9CEC2EF064C082F065C083F066C064
:1014B80084F067C085F00FD00001826B836B846B6A
:1014C800856B09D001018351070ABAE00F0AC9E008
:1014D800010AD8E0F1D70101822900017F6F05D008
:1014E800D89085338433833382337F2FF9D705D05F
:1014F8000001826B836B846B856B82C066F0240E5F
:101508006FEC3AF07DC066F01F0E6FEC3AF0260ED5
:1015180098EC39F0866F0C0E0101821906E1070E6E
:10152800831909E0080E831906E00B0E821906E1FB
:10153800070E831903E10001868702D00001869710
:10154800868586C066F0260E6FEC3AF0310E98EC70
:1015580039F0866FF80E8617030E861386C066F07C
:10156800310E6FEC3AF00A0E0001666F370E6FEC21
:101578003AF0120E01019A1929E1070E831903E0C6
:10158800080E831915E1310E98EC39F0866F869FA5
:1015980086C066F0310E6FEC3AF0400E0001666FBF
:1015A8002F0E6FEC3AF00001666B300E6FEC3AF0DC
:1015B800090E010183190AE1310E98EC39F0866FA2
:1015C800868F86C066F0310E6FEC3AF0330E98ECD9
:1015D80039F0866F869D868189C17FF0010E7F175D
:1015E800060E806FD8907F37802FFCD77F518613E7
:1015F80086C066F0330E6FEC3AF089C17FF0010EB9
:1016080000017F17D8907F37D8907F35FF0A1D0BD0
:10161800866F86C066F03B0E6FEC3AF0010176519A
:101628000001666F200E6FEC3AF075C166F0210E6E
:101638006FEC3AF00001666B0D0E6FEC3AF00001AA
:10164800666B0E0E6FEC3AF00001666B0F0E6FECD6
:101658003AF0120E01019A1968E1090E83191EE188
:10166800800E695D130E6A59610E6B59330E6C5901
:1016780015E36905F70E6A59CB0E6B593C0E6C5988
:101688000DE2020E0001666F360E6FEC3AF0640E42
:101698000001666F3A0E6FEC3AF028D0090E8319F4
:1016A8001FE1800E695D1A0E6A59700E6B59180E8B
:1016B8006C5916E3410E695DDD0E6A594A0E6B5985
:1016C8001F0E6C590DE2020E0001666F360E6FECAC
:1016D8003AF07F0E0001666F3A0E6FEC3AF006D0D2
:1016E800030E0001666F360E6FEC3AF0090E010129
:1016F80083190FE189050DE1650E0001666F3A0E49
:101708006FEC3AF0190E0001666F3B0E6FEC3AF081
:101718000CD0650E0001666F3A0E6FEC3AF01D0EA4
:101728000001666F3B0E6FEC3AF000016669120E1D
:101738006FEF3AF06DC171F06EC172F06FC173F066
:1017480070C174F067EC32F071C171F072C172F05F
:1017580073C173F074C174F0CAEC32F001017651B0
:101768000001666F250E6FEC3AF075C166F0260E23
:101778006FEC3AF00A0E98EC39F0866F9F0E8617D8
:1017880001019C39E846E00B0001861386C066F02B
:101798000A0E6FEC3AF0C80E0001866F0101855100
:1017A80002E00001868986C066F0300E6FEC3AF0E0
:1017B8000001816B0ED0780E8125D96EDA6A010E90
:1017C800DA22DF50666F8151280F6FEC3AF0000182
:1017D800812B010180510001815DEDE30101805100
:1017E80008E0800510090001666F270E6FEC3AF0DB
:1017F80005D00001666B270E6FEC3AF000016669B0
:101808003E0E6FEC3AF0000166693F0E6FEF3AF05A
:101818000101656B646B626B606B616BBCC094F0BB
:10182800BDC095F0100E0001966F010E976F000E67
:10183800986F010E996F41EC24F0C251C36FC46BCD
:101848000F0EC327000EC423040EC56FC435C4335E
:10185800C333C52FFBD7C3510101636F635104E143
:10186800010E636F626B0AD0C2C0C3F00F0E000195
:10187800C317010ED8A4000E0101626F620541E191
:10188800646B6351100DF350F00F656F1ED0200E7E
:1018980001016425D96EDA6A010EDA22100E642578
:1018A800E96EEA6A010EEA22EF500001C36F0101F6
:1018B80065510001C025E96E000EC121EA6EEF50A6
:1018C800C319DF6E0101642B652B63510001C36FDF
:1018D800C46BC33BC43BF00EC417C3510F0BC413F6
:1018E800F00EC317010165510001C56FC66BC351E6
:1018F800C55DC651800AC76FC451800AC75963E2E3
:10190800C6D70001C251C025C36F000EC121C46FE4
:10191800C2510F0BC35D0101606F0001C451D8A013
:10192800C4050101616F656B0001C2510F0B010114
:1019380065610FD065516025D96E000E6121DA6EA0
:10194800300E6525E96EEA6A010EEA22DFCFEFFF65
:1019580016D00001C2510F0B0101651909E1300EC3
:101968006525D96EDA6A010EDA22800EDF6E07D09D
:10197800300E6525D96EDA6A010EDA22DF6A652B28
:101988000F0E6565D1D7656B200E6525D96EDA6AAD
:10199800010EDA22000E6525E96EEA6A010EEA22D6
:1019A800EF500001C36F300E01016525E96EEA6A48
:1019B800010EEA22EF500001C319DF6E0101652B09
:1019C8000F0E6565E1D7500E0001646F010E656F5B
:1019D800676B666B696B100E686F21EC39F001015B
:1019E800656B51D00101646B400E6425D96EDA6ACB
:1019F800010EDA2265510001C36FC46BC33BC43BBF
:101A0800F00EC417C3510F0BC413F00EC317C0C098
:101A1800C5F0C1C0C6F0C351C527C451C6230101D2
:101A280064510001C525E96E000EC621EA6EEF502B
:101A3800C76F500E01016425E96EEA6A010EEA22B9
:101A4800EF500001C719DF6E0101642B0F0E6465AA
:101A5800CBD7500E0001646F010E656F400E666FA4
:101A6800010E676F696B100E686F14EC34F0500E3E
:101A7800806F010E816FBCC082F0BDC083F05EEC48
:101A880039F00101652B0001C369C4690101635183
:101A98000001C56FC66BC351C527C451C6230101D8
:101AA80065510001C76FC86BC551C75DC851800A31
:101AB800C96FC651800AC95995E30101656B400E8B
:101AC8006525D96EDA6A010EDA22200E6525E96EDF
:101AD800EA6A010EEA22EF500001C36F500E0101BD
:101AE8006525E96EEA6A010EEA22EF500001C31982
:101AF800DF6E0101652B0F0E6565E1D7400E000111
:101B0800806F010E816FBCC082F0BDC083F05EECB7
:101B180039F0BEC064F0BFC065F0400E666F010EBC
:101B2800676F696B100E686F14EF34F06651D96EE9
:101B3800DA6ADF506F6F6E6B69D1675101E14BD183
:101B48006E51020DA80EF324D96E020EF420DA6E3F
:101B5800DE2801E140D1FE0E686F69696E51020D01
:101B6800A80EF324D96E020EF420DA6EDF506A6FE5
:101B78006B6B68516A2769516B23940E6A25F66E60
:101B8800FF0E6B21F76EF86A000EF8220800F55078
:101B98006FC06CF06D6B6C27000E6D236651D96EAB
:101BA800DA6ADF506C5F000E6D5B6DBF14D16D514A
:101BB80005E1100E6C5D01E32FD10DD12DD16F51D0
:101BC8006425D96E000E6521DA6E030EDF6E6F2B69
:101BD8006F516425D96E000E6521DA6EDF6A6E5189
:101BE800020DA90EF324D96E020EF420DA6EDFA0DE
:101BF80009D000016F516425D96E000E6521DA6E97
:101C0800000EDB8000016E51020DA90EF324D96E7F
:101C1800020EF420DA6EDFA208D06F516425D96E67
:101C2800000E6521DA6E000EDB8200016E51020D96
:101C3800A90EF324D96E020EF420DA6EDFA409D0BF
:101C480000016F516425D96E000E6521DA6E000E11
:101C5800DB8400016F2BD9D06F516425D96E000E3B
:101C68006521DA6E050EDF6E6F2B6F516425D96E14
:101C7800000E6521DA6EDF6A6E51020DA90EF3249B
:101C8800D96E020EF420DA6EDFA609D000016F517A
:101C98006425D96E000E6521DA6E000EDB80000126
:101CA8006E51020DA90EF324D96E020EF420DA6EDD
:101CB800DFA808D06F516425D96E000E6521DA6E51
:101CC800000EDB8200016E51020DA90EF324D96EBD
:101CD800020EF420DA6EDFAABCD7B2D76F516425A2
:101CE800D96E000E6521DA6E060EDF6E6F2B6F510E
:101CF8006425D96E000E6521DA6EE0C2DFFF6F2B16
:101D08007FEC3CF0800AA00F05E37FEC3CF0800AF2
:101D1800600F09E300016F516425D96E000E65213B
:101D2800DA6E200E0AD000016F516425D96E000EBC
:101D38006521DA6E7FEC3CF03F0BDF6E8AD76F517E
:101D48006425D96E000E6521DA6E070EDF6E6F2BE3
:101D58006F516425D96E000E6521DA6EDF6A6E5107
:101D6800020DA90EF324D96E020EF420DA6EDFAE4E
:101D780009D000016F516425D96E000E6521DA6E15
:101D8800000EDB8000016E51020DA90EF324D96EFE
:101D9800020EF420DA6EDFAC5CD76F516425D96E81
:101DA800000E6521DA6E000EDB8253D70201DD6971
:101DB800DE6B00016E51020DA80EF324D96E020EDF
:101DC800F420DA6E6F516425E96E000E6521EA6E23
:101DD800DFCFEFFF3ED76E51020DA80EF324D96E68
:101DE800020EF420DA6EDF50020AE0E0010A01E197
:101DF800E6D6070ADEE0010A01E12ED7030A01E16F
:101E08006DD7010A9CE00F0AD4E06E2B0201A7519E
:101E180000016E5D01E291D66651D96EDA6A6FC033
:101E2800DFFF1200D16F100E0001D56FD46BD20EF8
:101E3800646F656B676B666B696B010E686F21EC8D
:101E480039F0E00E646F040E656F676B666B010E08
:101E5800696F0F0E686F21EC39F09F0E646F010EE9
:101E6800656F676B666B696B100E686F21EC39F0F4
:101E7800D10507E1D2511F0B8009D26F0201008101
:101E880004D0D2511F0B4009D26FFC0E0001D217AB
:101E9800E30ED217E00ED525D96EDA6A040EDA22DF
:101EA800D2C0DFFFD52BE00ED525646F656B040E1D
:101EB80065231E0E666F020E676F696B040E686FEE
:101EC80014EC34F0040ED527D36B020102AD30D0E8
:101ED8000001D38F0201DF51EB5D29E20001D38DB0
:101EE80002010089D04BD12BA251D019D11102E1A6
:101EF800EE6B1AD0A2510001CF6FD06B0201D05106
:101F08000001CF5D0201D1510001D0590EE202015A
:101F1800EE2BEE51A35D0CE2EE6B8AEC2CF000097F
:101F280007E10201D06BD16B0001D39D020100993A
:101F3800020100A304D00001D38B02010093000129
:101F4800D3990201A75104E00001CD51CE1104E15B
:101F5800F00E0001D31707D06BEC2AF0CF6FD3191E
:101F6800F00BCF19D36FE00ED525D96EDA6A040EBF
:101F7800DA22D3C0DFFFD52BE00ED525646F656B61
:101F8800040E6523060E666F020E676F696B020EFC
:101F9800686F14EC34F0020ED5270201A7510EE049
:101FA8000001CD51CE110AE0E00E646F040E656F9A
:101FB800D50E666F010E676F9AEC0DF0E00E00010A
:101FC800D525D96EDA6A040EDA22CAC0DFFFD52B0E
:101FD800CD51CE112EE0E00ED525646F656B040E51
:101FE8006523CBC066F0CCC067F0CDC068F0CEC02A
:101FF80069F014EC34F0CBC094F0CCC095F0CDC0AF
:1020080096F0976B06C298F007C299F008C29AF04A
:1020180009C29BF0320E9C6F020E9D6FD5C09EF0D8
:10202800E00E9F6F040EA06FA16BAAEC20F0CD51BB
:102038002AD00201A75128E0EF0E0001646F050EB7
:10204800656FD40E666F676B9AEC0DF0EF0E946FA8
:10205800050E956FD4C096F0976B06C298F007C22C
:1020680099F008C29AF009C29BF0220E9C6F020EEA
:102078009D6FD5C09EF0E00E9F6F040EA06FA16B00
:10208800AAEC20F0D451D52706C26EF007C26FF033
:1020980008C270F009C271F00001D551F00F726FDB
:1020A800490E736F000E746B31EC2CF0E00E646F08
:1020B800040E656F9F0E666F010E676F696B100ED9
:1020C800686F14EC34F0220EBC6F020EBD6F9F0EC9
:1020D800BE6F010EBF6FE00EC06F040EC16FD5C09A
:1020E800C2F00CEC0CF0E00ED525646F656B040EA5
:1020F80065239F0E666F010E676F696B040E686F2C
:1021080014EC34F0040ED527F00ED5250201D46F57
:10211800D56BFF0ED523FF0C0A0EE126000EE22236
:102128004E684F6850685168FA0E4EC0E3FFFB0EC8
:102138004FC0E3FFFC0E50C0E3FFFD0E51C0E3FFAC
:10214800FF0EE36AFE0EE36AFE0EE3500E0D040E68
:10215800F324D96E040EF420DA6EDE0401E0AAD06E
:10216800FE0EE3500E0D080EF324D96E040EF42073
:10217800DA6EDE50DE10DE10DE1001E19BD0FE0EBE
:10218800E3500E0D080EF324D96E040EF420DA6E17
:10219800DE500201C85DDE50C959DE50CA59DE5012
:1021A800CB592FE2FE0EE3500E0D080EF324D96E24
:1021B800040EF420DA6EDECF4EF0DECF4FF0DECF25
:1021C80050F0DECF51F0C8514E5C4A6EC9514F589D
:1021D8004B6ECA5150584C6ECB5151584D6EFE0E35
:1021E800E3500E0D080EF324D96E040EF420DA6EB7
:1021F8004AC0DEFF4BC0DEFF4CC0DEFF4DC0DEFF35
:102208000DD0FE0EE3500E0D080EF324D96E040E09
:10221800F420DA6EDE6ADE6ADE6ADD6AFE0EE350FC
:102228000E0D080EF324D96E040EF420DA6EFA0EA1
:10223800E3CF47F0DE50475CFB0EE3CF47F0DE50BC
:102248004758FC0EE3CF47F0DE504758FD0EE3CF6A
:1022580047F0DE5047582EE3FE0EE3500E0D080EF1
:10226800F324D96E040EF420DA6EDE50DE10DE1090
:10227800DE1020E0FE0EE3500E0D080EF324D96E9A
:10228800040EF420DA6EDECF4EF0DECF4FF0DECF54
:1022980050F0DECF51F0FA0E4EC0E3FFFB0E4FC0F8
:1022A800E3FFFC0E50C0E3FFFD0E51C0E3FFFF0E3D
:1022B800E36AE32AFE0EE32AE3CF47F00F0E4764F2
:1022C80043D7FF0EE30401E096D0E150FA0FD96E30
:1022D800E250DA6EFF0EDA22DECFC8F2DECFC9F2A4
:1022E800DECFCAF2DECFCBF2FD0EE3500DE1FA0EDF
:1022F800E328FB0EE3CF47F0FF0E475AFC0EE3CF6F
:1023080047F00F0E475A28E3E150FA0FD96EE25012
:10231800DA6EFF0EDA22DECF64F0DECF65F0DECFB4
:1023280066F0DECF67F07D0E0001686F696B6A6B3F
:102338006B6B1AEC30F064C04EF065C04FF066C0AD
:1023480050F067C051F00C0ED8904E364F365036CC
:102358005136E82EF9D72CD0FA0EE3CF4EF0FB0E0B
:10236800E3CF4FF0FC0EE3CF50F0FD0EE3CF51F07A
:102378000C0ED8904E364F3650365136E82EF9D7D7
:102388004EC064F04FC065F050C066F051C067F0B1
:102398007D0E0001686F696B6A6B6B6B1AEC30F02D
:1023A80064C04EF065C04FF066C050F067C051F091
:1023B800F60E4EC0E3FFF70E4FC0E3FFF80E50C015
:1023C800E3FFF90E51C0E3FFE150F60FD96EE2507A
:1023D800DA6EFF0EDA22DECF71F0DECF72F0DECFDA
:1023E80073F0DECF74F00201E95175EC36F00201AA
:1023F800E95158EC2EF0F50EE126FF0EE222FF0C13
:102408000A0E446E010EEE6F7F6B6C517F25D96EFC
:10241800DA6ADF506D6F7F516A25D96E000E6B2125
:10242800DA6E6D51DF1A7F2B0F0E7F65EED77F6B4B
:102438007F516A25D96E000E6B21DA6EDF506D6F01
:102448006E6B6D0E6D25F66EFE0E6E21F76EF86AD8
:10245800000EF8227F516A25D96E000E6B21DA6EC4
:102468000800F5CFDFFF7F2B0F0E7F65E1D76AC02D
:1024780064F06BC065F09EEC1EF0440401E111D1DC
:102488007F6B7F516A256D6F000E6B216E6F6D2912
:10249800D96E000E6E21DA6EDF506F6F7F516A259C
:1024A800D96E000E6B21DA6EDF506F197D6F7F5188
:1024B8006A256D6F000E6B216E6F030E6D25D96E48
:1024C800000E6E21DA6EDF506F6F7F516A25706FD4
:1024D800000E6B21716F020E7025D96E000E7121EE
:1024E800DA6EDF506F197E6F7D197B6F7F516A2519
:1024F8006D6F000E6B216E6F6D29D96E000E6E2107
:10250800DA6EDF506F6F7F516A25706F000E6B2196
:10251800716F020E7025D96E000E7121DA6EDF50D0
:102528006F197C6F7F0E7D650CD01B0E7DC06DF022
:102538006E6BD8906D376E376D19756F6E51766FFB
:1025480005D0D8907D35756F766B763775C07DF080
:102558007F0E7C650CD01B0E7CC06DF06E6BD89026
:102568006D376E376D19776F6E51786F05D0D890CB
:102578007C35776F786B783777C07CF07F0E7E6517
:102588000CD01B0E7EC06DF06E6BD8906D376E3719
:102598006D19796F6E517A6F05D0D8907E35796F45
:1025A8007A6B7A3779C07EF07F516A25D96E000E32
:1025B8006B21DA6E7F516A25E96E000E6B21EA6E97
:1025C800EF507B197D19DF6E7F516A256D6F000E04
:1025D8006B216E6F6D29D96E000E6E21DA6E7F51F8
:1025E8006A256F6F000E6B21706F6F29E96E000E00
:1025F8007021EA6EEF507B197C19DF6E7F516A25D6
:102608006D6F000E6B216E6F020E6D25D96E000E78
:102618006E21DA6E7F516A256F6F000E6B21706F25
:10262800020E6F25E96E000E7021EA6EEF507B19DD
:102638007E19DF6E7F516A256D6F000E6B216E6FFC
:10264800030E6D25D96E000E6E21DA6E7F516A2554
:102658006F6F000E6B21706F020E6F25E96E000E12
:102668007021EA6EEF50716F7F516A25726F000E0C
:102678006B21736F7229E96E000E7321EA6EEF50B9
:10268800746F7F516A25E96E000E6B21EA6EEF5078
:10269800741971197B19DF6E040E7F270F0E7F6581
:1026A800F0D66CC064F0C0EC14F07F6B6C517F25E1
:1026B800D96EDA6ADF506D6F7F516A25D96E000EC8
:1026C8006B21DA6E6D51DF1A7F2B0F0E7F65EED707
:1026D8004406445001E0ABD612000001AB69AC6976
:1026E800AD69AE69020103B134D102510F0B030A7F
:1026F8000EE1125105E10251F00B0409026F1200BC
:10270800020E1219D8A41200E66AA9EF29F000B542
:10271800ABEF39F002A9120000A14BD0D951D75D17
:1027280034E30251F00B0609026FA0510001A76FB4
:102738000201A1510001A86FA96BAA6B0C0ED890D9
:10274800A737A837A937AA37E82EF9D7A7C064F062
:10275800A8C065F0A9C066F0AAC067F07D0E686FD2
:10276800696B6A6B6B6B1AEC30F064C071F065C012
:1027780072F066C073F067C074F00201E85175EC3E
:1027880036F00201E85158EF2EF0CDEC3BF0000195
:10279800E851E911D8B41200676B686B696B6A6B12
:1027A8000500FA6AE851FD6EE951FE6EFF6AFA50BB
:1027B8001200D851D65D01E2B7D00251F00B0609DC
:1027C800026F010E2CEC33F0000919E1F00E966F40
:1027D800040E976FD4C298F0E2EC17F09651971157
:1027E80007E10201D82B0251F00B0109026F120018
:1027F800C6EC3BF00001E851E911CEE11200AF6BE5
:102808005BD00001AF510E0D040EF324D96E040EF7
:10281800F420DA6EDE044EE1AF510E0D080EF324FB
:10282800D96E040EF420DA6EDE50DE10DE10DE10F3
:1028380041E0AF510E0D080EF324D96E040EF420BA
:10284800DA6EDE50AB5DDE50AC59DE50AD59DE506D
:10285800AE5930E3AF510E0D050EF324D96E040EB8
:10286800F420DA6EDF500F0BA76FA7510201DF5D6E
:1028780021E30001AF510E0D050EF324D96E040EAD
:10288800F420DA6EDF380F0BA76F0201DF51000169
:10289800A75D10E3AF510E0D080EF324D96E040E98
:1028A800F420DA6EDECFABF0DECFACF0DECFADF0E9
:1028B800DECFAEF00001AF2BAF510201ED5DA1E21A
:1028C800ABC0A7F0ACC0A8F0ADC0A9F0AEC0AAF0EC
:1028D8000C0ED8900001A737A837A937AA37E82ED9
:1028E800F8D7000EA725646F200EA821656F030E88
:1028F800A921666F000EAA21676F7D0E686F696B4C
:102908006A6B6B6B1AEC30F064C071F065C072F0E2
:1029180066C073F067C074F00201EA5175EC36F0D6
:102928000201EA5158EF2EF0C6EC3BF00001E851E5
:10293800E911D8B41200676B686B696B010E6A6F96
:102948000500FA6EE851FD6EE951FE6EFF6AFA5015
:1029580012000001E851E911D8B41200676B686BE6
:10296800696B020E6A6F0500FA6EE851FD6EE95157
:10297800FE6EFF6AFA5012006451D96EDA6A0D0EC3
:10298800D926DF50656F666B6D0E6525F66EFE0EF7
:102998006621F76EF86A000EF8220800F5CF67F096
:1029A8006451D96EDA6A6751DF1A6451D96EDA6AEE
:1029B8000E0ED926DF50656F666B6D0E6525F66EB7
:1029C800FE0E6621F76EF86A000EF8220800F5CFB1
:1029D80067F06451D96EDA6AD92A6751DF1A6451EF
:1029E800D96EDA6A0F0ED926DF50656F666B6D0EE9
:1029F8006525F66EFE0E6621F76EF86A000EF8225F
:102A08000800F5CF67F06451D96EDA6A020ED9264C
:102A18006751DF1A6451D96EDA6A0C0ED926DF5075
:102A2800656F666B6D0E6525F66EFE0E6621F76E98
:102A3800F86A000EF8220800F5CF67F06451D96EE5
:102A4800DA6A030ED9266751DF1A6451D96EDA6A39
:102A5800EE51DF1A7F0EEE650CD01B0EEEC065F04E
:102A6800666BD890653766376519686F6651696F08
:102A780005D0D890EE35686F696B693768C0EEF09D
:102A88006451D96EDA6ADF50656F6451D96EDA6ABB
:102A9800040ED9266551DF1A6451D96EDA6AD92A2B
:102AA800DF50656F6451D96EDA6A050ED926655113
:102AB800DF1A6451D96EDA6A020ED926DF50656FC3
:102AC8006451D96EDA6A060ED9266551DF1A645147
:102AD800D96EDA6A030ED926DF50656F6451D96E54
:102AE800DA6A070ED9266551DF1A6451D96EDA6A97
:102AF800040ED926DF50656F6451D96EDA6A080E64
:102B0800D9266551DF1A6451D96EDA6A050ED926BD
:102B1800DF50656F6451D96EDA6A090ED92665519E
:102B2800DF1A6451D96EDA6A060ED926DF50656F4E
:102B38006451D96EDA6A0A0ED9266551DF1A6451D2
:102B4800D96EDA6A070ED926DF50656F6451D96EDF
:102B5800DA6A0B0ED9266551DF1A6451D96EDA6A22
:102B6800080ED926DF50656F6451D96EDA6A0C0EEB
:102B7800D9266551DF1A6451D96EDA6A090ED92649
:102B8800DF50656F6451D96EDA6A0D0ED92665512A
:102B9800DF1A6451D96EDA6A0A0ED926DF50656FDA
:102BA8006451D96EDA6A0E0ED9266551DF1A64515E
:102BB800D96EDA6A0B0ED926DF50656F6451D96E6B
:102BC800DA6A0F0ED9266551DF1A120001018CA5A9
:102BD80006D0800E0001976F030E966F030C8CC110
:102BE80098F0030E0001981705E0800E976F040E09
:102BF800966F040C9651971107E1000E7E6F040E34
:102C08007D6FD0EC09F006D096C07DF097C07EF0BD
:102C1800D0EC09F00101810511E1010E0001666F98
:102C2800220E6FEC3AF00001666B400E6FEC3AF042
:102C38000001666B410E6FEC3AF014D09DC166F04E
:102C4800120E6FEC3AF09EC166F0130E6FEC3AF07C
:102C58000001666B400E6FEC3AF00001666B410EA6
:102C68006FEC3AF001018C83E70E8C170001965146
:102C7800971108E181C169F0000E6A6F050E6EECCC
:102C880028F041D00101810509E1010E0001696FB9
:102C9800000E6A6F060E6EEC28F035D0000E0001AB
:102CA800696F6A6F050E6EEC28F000019651986FF7
:102CB8009751996F9A6B9B6B0C0ED89098379937F0
:102CC8009A379B37E82EF9D798C064F099C065F019
:102CD8009AC066F09BC067F07D0E686F696B6A6B7F
:102CE8006B6B1AEC30F064C071F065C072F066C0AE
:102CF80073F067C074F00101915175EC36F0010171
:102D0800915158EC2EF0010193519411951196119F
:102D180059E0965106E19329FF0E94590F0E9559E3
:102D280019E393C164F094C165F095C166F096C14A
:102D380067F07D0E0001686F696B6A6B6B6B1AEC4C
:102D480030F00C0ED8906437653766376737E82E51
:102D5800F9D720D093C198F094C199F095C19AF011
:102D680096C19BF00C0ED8900001983799379A3786
:102D78009B37E82EF8D798C064F099C065F09AC0E0
:102D880066F09BC067F07D0E686F696B6A6B6B6B52
:102D98001AEC30F064C09CF065C09DF066C09EF0EF
:102DA80067C09FF09CC071F09DC072F09EC073F028
:102DB8009FC074F00101925175EC36F001019251F7
:102DC80058EC2EF00001966B976B12007F6B7AC05F
:102DD80080F07BC081F0DED00201A751020DA90E60
:102DE800F324D96E020EF420DA6EDF90A751020D9B
:102DF800A90EF324D96E020EF420DA6EDF92A751E1
:102E0800020DA90EF324D96E020EF420DA6EDF94B7
:102E1800A751020DA90EF324D96E020EF420DA6E22
:102E2800DF96A751020DA90EF324D96E020EF420E5
:102E3800DA6EDF98A751020DA90EF324D96E020E9F
:102E4800F420DA6EDF9AA751020DA90EF324D96E89
:102E5800020EF420DA6EDF9CA751020DA90EF324AE
:102E6800D96E020EF420DA6EDF9E80C0D9FF81C0D1
:102E7800DAFFA751020DA80EF324E96E020EF42022
:102E8800EA6EDFCFEFFF60D080C064F081C065F0EC
:102E98003DEC38F064C080F065C081F00201A751B4
:102EA800020DA80EF324D96E020EF420DA6EDF6844
:102EB80062D080C071F081C072F09EEC1AF071C0CF
:102EC80080F072C081F057D080C064F081C065F096
:102ED800BBEC34F064C080F065C081F04CD080C099
:102EE80070F081C071F054EC21F070C080F071C0B6
:102EF80081F041D080C064F081C065F034EC3CF0D2
:102F080064C080F065C081F036D080C070F081C0A8
:102F180071F0BDEC19F070C080F071C081F02BD059
:102F280080C069F081C06AF0BDEC39F069C080F0FA
:102F38006AC081F020D0010E7F6F7C517A25806FA6
:102F4800000E7B21816FAAD780C0D9FF81C0DAFF2C
:102F58000001804B812BDF50020A96E0010AA9E0AC
:102F6800070AB2E0010ABBE0030AC4E0010ACDE0A7
:102F78000F0AD6E0E0D70201A751020DA80EF324EC
:102F8800D96E020EF420DA6EDE2804E0100EA76176
:102F980001D0A72B00017C517A257D6F000E7B2183
:102FA8007E6F7D51805D7E51815903E27F5101E141
:102FB80013D780C07AF081C07BF0120001018CA584
:102FC80006D0800E0001976F030E966F030C8CC11C
:102FD80099F0030E0001991705E0800E976F040E13
:102FE800966F040C0101815109E1400E00019865BA
:102FF80005D0800E976F020E966F020C010190515A
:103008009CEC3AF0000E7E6F040E7D6FD0EC09F058
:103018000101810523E198C066F0220E6FEC3AF0B9
:103028000A0E98EC39F0A56FF00EA517A587A5C074
:1030380066F00A0E6FEC3AF0400E0001666F6FEC16
:103048003AF00001666B410E6FEC3AF081C169F00D
:10305800010E00016A6F6EEC28F00AD00001666B61
:10306800400E6FEC3AF00001666B410E6FEC3AF0DF
:103078000101815105E198C066F0000E6FEC3AF04D
:10308800A6EC3CF0800E4DEC3CF00001A66B0BD09A
:10309800A6519625D96E000E9721DA6EDF504DECB9
:1030A8003CF00001A62B9851A65DF2E3A4EC3CF09D
:1030B80001018C81E70E8C1781C169F0000E0001B7
:1030C8006A6F030E6EEC28F00001716B726B0A0ECA
:1030D800736F746B0101905175EC36F001019051DA
:1030E80058EC2EF00101935194119511961159E065
:1030F800965106E19329FF0E94590F0E955919E33D
:1031080093C164F094C165F095C166F096C167F00B
:103118007D0E0001686F696B6A6B6B6B1AEC30F09F
:103128000C0ED8906437653766376737E82EF9D7BD
:1031380020D093C199F094C19AF095C19BF096C1A3
:103148009CF00C0ED890000199379A379B379C3722
:10315800E82EF8D799C064F09AC065F09BC066F075
:103168009CC067F07D0E686F696B6A6B6B6B1AECBD
:1031780030F064C0A1F065C0A2F066C0A3F067C0DB
:10318800A4F0A1C071F0A2C072F0A3C073F0A4C0F3
:1031980074F00101925175EC36F00101925158EC2E
:1031A8002EF00001966B976B12000001746F210ED0
:1031B8007419D8A41200030E796F7A6B756B766B4D
:1031C800776B786B750E646F656B7A51030D70C001
:1031D80072F071C073F0F3507227F45073230D0E20
:1031E8007227000E73237251666F676B696B030E4B
:1031F800686F14EC34F075C064F076C065F077C081
:1032080066F078C067F0640E686F696B6A6B6B6B09
:103218009CEC2EF064C075F065C076F066C077F05F
:1032280067C078F0755176117711781101E194D063
:1032380075C064F076C065F077C066F078C067F056
:10324800BAEC33F0000901E08CD07A510E0D000E73
:10325800726F040E736FF3507227F4507323795111
:103268000E0DF3507225D96EF4507321DA6E75C0C5
:10327800DEFF76C0DEFF77C0DEFF78C0DEFF7A5162
:103288000E0D000E726F040E736F050E7227000E7E
:103298007323F3507227F450732379510E0DF350B2
:1032A8007225D96EF4507321DA6EDF500F0B500976
:1032B800DF6E00017A510E0D000E726F040E736FEF
:1032C800050E7227000E7323F3507227F4507323F0
:1032D80079510E0DF3507225D96EF4507321DA6EC0
:1032E800F00EDF167A510E0D000E726F040E736F1A
:1032F800060E7227000E7323F3507227F4507323BF
:1033080079510E0DF3507225D96EF4507321DA6E8F
:10331800E70EDE6E030EDD6E7A510E0D000E726F33
:10332800040E736F0D0E7227000E7323F35072276D
:10333800F450732379510E0DF3507225D96EF45061
:103348007321DA6EDF68010E686F7A51792569ECAE
:1033580037F00201038705D0686B7A51792569EC4B
:1033680037F000017A2B040E7A6528D7020103870B
:10337800040C70C0D9FF71C0DAFFDF50776F704B53
:10338800712B70C0D9FF71C0DAFFFF0EDE14736FA6
:10339800FF0EDE14746FFF0EDE14756F000EDE1460
:1033A800766F73C064F074C065F075C066F076C05F
:1033B80067F0640E686F696B6A6B6B6B9CEC2EF040
:1033C80064C073F065C074F066C075F067C076F0CD
:1033D800030E7027000E712370C0D9FF71C0DAFF89
:1033E800DF50726F704B712B646B775151EC3AF070
:1033F80000092BE173C064F074C065F075C066F015
:1034080076C067F0BAEC33F0000905E07351741127
:10341800751176110AE10201A751020DA90EF324D4
:10342800D96E020EF420DA6EDF8E00017251D7ECED
:1034380037F000090AE10201A751020DA90EF32491
:10344800D96E020EF420DA6EDF8C0201A751020D4C
:10345800A90EF324D96E020EF420DA6EDFAE65D021
:10346800A751020DA90EF324D96E020EF420DA6ECC
:10347800DFAC5BD0100EDA6129D0000173517411F2
:10348800751176111EE073C064F074C065F075C0E4
:1034980066F076C067F077514CEC37F072C064F094
:1034A8007751C2EC24F0010E0001656F2E0E646F97
:1034B800775124EC38F0010E646F7751BEEC23F09D
:1034C80032D0686B775169EC37F02DD00001735119
:1034D80074117511761122E073C064F074C065F040
:1034E80075C066F076C067F07751100F4CEC37F076
:1034F80072C064F07751100FC2EC24F0010E000185
:10350800656F2E0E646F7751100F24EC38F0010EA2
:10351800646F7751100FBEEC23F005D0686B7751BC
:10352800100F69EC37F00201038770C070F071C0AA
:1035380071F0120071C0D9FF72C0DAFFDF500F0BB3
:10354800766F71C0D9FF72C0DAFFDF50736F7339BD
:103558000F0B796F714B722B71C0D9FF72C0DAFFF4
:10356800DECF74F0DDCF75F0020E7127000E7223E6
:1035780071C077F072C078F0714B722B020102AD06
:1035880092D077C0D9FF78C0DAFF0001DF38070B87
:1035980062EC3BF0000912E174C064F075C065F09C
:1035A80085EC37F000090AE10201A751020DA90EC6
:1035B800F324D96E020EF420DA6EDF80000179510F
:1035C8008EEC3BF0000912E10201EB510001795D3C
:1035D8000DE379510201EC5D09E3A751020DA90E33
:1035E800F324D96E020EF420DA6EDF8200017651E0
:1035F800E0EC39F000090AE10201A751020DA90E19
:10360800F324D96E020EF420DA6EDF840201A7518A
:10361800020DA90EF324D96E020EF420DA6EDFA48F
:103628005DD0A751020DA90EF324D96E020EF42025
:10363800DA6EDFA253D0A751020DA90EF324D96E7A
:10364800020EF420DA6EDFA049D074C06EF075C0A7
:103658006FF077C0D9FF78C0DAFF0001DF38070BB9
:10366800706F79EC3BF0765160EC3CF00201038915
:103678000001795164EC3CF077C0D9FF78C0DAFFDB
:103688000001DF500F0B03E10201D66B0AD077C0AF
:10369800D9FF78C0DAFFDF500F0B736F7305020193
:1036A800D66F038B1BD0A751020DA90EF324D96E38
:1036B800020EF420DA6EDF90A751020DA90EF32452
:1036C800D96E020EF420DA6EDF92A751020DA90E10
:1036D800F324D96E020EF420DA6EDF9471C071F013
:1036E80072C072F012009651986F9751996F9A6B49
:1036F8009B6BE80E9803F3CF9CF0F4CF9DF09E6B84
:103708009F6B9903F3509D27F4509E23000E9F232F
:10371800030E9803F3509D27F4509E23000E9F2319
:10372800E80E9A03F3509E27F4509F23030E990343
:10373800F3509E27F4509F23000E9803F3509E27C2
:10374800F4509F23E80E9B03F3509F27030E9A0320
:10375800F3509F27000E9903F3509F27000E9803FC
:10376800F3509F279CC0CCF29DC0CDF29EC0CEF2F4
:103778009FC0CFF29651971127E10201E7519CECC7
:103788003AF0020103950001A46B18D0A451020D70
:10379800A80EF324D96E020EF420DA6E020EDE189B
:1037A8000BE1A451020DA80EF324D96E020EF420E9
:1037B800DA6EDF680201A7070001A42B0201A751F6
:1037C8000001A45DE3E312000201038502A91200CF
:1037D800CF5106E1CC29FF0ECD590F0ECE5919E372
:1037E800CCC264F0CDC265F0CEC266F0CFC267F03D
:1037F8007D0E0001686F696B6A6B6B6B1AEC30F0B9
:103808000C0ED8906437653766376737E82EF9D7D6
:1038180020D0CCC298F0CDC299F0CEC29AF0CFC2D7
:103828009BF00C0ED8900001983799379A379B3740
:10383800E82EF8D798C064F099C065F09AC066F091
:103848009BC067F07D0E686F696B6A6B6B6B1AECD7
:1038580030F064C0A0F065C0A1F066C0A2F067C0F7
:10386800A3F0A0C071F0A1C072F0A2C073F0A3C011
:1038780074F00201E75175EC36F00201E75158EF98
:103888002EF07FC069F180C06AF181C06BF182C0FF
:103898006CF1A80E01016D6F610E6E6F6F6B706B2E
:1038A800500E716FC30E726F736B746B010E816F64
:1038B800070E836F010E846F8A6F8B6B766B080E11
:1038C800756F0C0E826F010E856F866B896BC10E4A
:1038D800786F940E796FC10E7A6F030E806F340E75
:1038E800776F8C6B8D6B7DC08EF17EC08FF1876B8F
:1038F800886B800E9B6F980E936F3A0E946F956B42
:10390800966B020E9C6F0B0E9D6F120E9E6F986B3E
:10391800996B975123E134EC31F00101906F34EC4D
:1039280031F00101916F34EC31F00101926F780EA2
:103938000001646F6F0E656F666B0101915156EC63
:1039480038F0660E646F6C0E656F666B01019251FC
:1039580056EC38F0010E0101976F0BD090519CEC9A
:103968003AF0010191519CEC3AF0010192519CEC22
:103978003AF0F1EC37F0000E0001696F010E6A6F42
:103988006EEC28F069C171F06AC172F06BC173F016
:103998006CC174F000EC28F0420E0001666F3B0E1B
:1039A8006FEC3AF03B0E98EC39F0836F83BBFAD793
:1039B800230E666F0C0E6FEC3AF01E0E0001666F58
:1039C8000D0E6FEC3AF0AA0E0001666F1F0E6FEC39
:1039D8003AF08F0E0001666F350E6FEC3AF0000179
:1039E8006669320E6FEC3AF0400E0001666F310ED8
:1039F8006FEC3AF0010E0001696F6A6F000E6EEC11
:103A080028F000016669230E6FEC3AF0420E98EC3C
:103A180039F001019A6F12003F0E98EC39F0DE6F11
:103A2800DEA7120081C169F0000E6A6F6EEC28F003
:103A380001018C9192519CEC3AF001018CB9120071
:103A4800905196EC36F0905107E11F0E8D5DAC0E4B
:103A58008E59DF0E8F5946E30101905196EC36F0EE
:103A68000D0E05D0D89090338F338E338D33E82EDA
:103A7800F9D77D0E8D03F3CFD2F0F4CFD3F0D46B0A
:103A8800D56B8E03F350D327F450D423000ED523DF
:103A98008D03F350D327F450D423000ED5237D0E85
:103AA8008F03F350D427F450D523000E8E03F35020
:103AB800D427F450D523000E8D03F350D427F450A7
:103AC800D5237D0E9003F350D527000E8F03F350B6
:103AD800D527000E8E03F350D527000E8D03F35023
:103AE800D52745D00101905196EC36F07D0E8D0317
:103AF800F3CFD2F0F4CFD3F0D46BD56B8E03F35061
:103B0800D327F450D423000ED5238D03F350D327A5
:103B1800F450D423000ED5237D0E8F03F350D42701
:103B2800F450D523000E8E03F350D427F450D52338
:103B3800000E8D03F350D427F450D5237D0E900347
:103B4800F350D527000E8F03F350D527000E8E03B0
:103B5800F350D527000E8D03F350D5270D0E05D051
:103B6800D890D533D433D333D233E82EF9D7D2C053
:103B7800DAF0D3C0DBF0D4C0DCF0D5C0DDF0DA5128
:103B88002008D66F4E0EDB55D76F000EDC55D86F68
:103B9800000EDD55D96F010190519CEC3AF0D6C06A
:103BA800A0F0D7C0A1F08CEF05F0010192519CEC78
:103BB8003AF0080E666F120E6FEC3AF081C169F0A8
:103BC800000E00016A6F6EEC28F001018C918CB92F
:103BD8001200905196EC36F0905107E11F0E8D5D62
:103BE800AC0E8E59DF0E8F5946E30101905196ECC9
:103BF80036F00D0E05D0D89090338F338E338D3339
:103C0800E82EF9D77D0E8D03F3CFD2F0F4CFD3F0A1
:103C1800D46BD56B8E03F350D327F450D423000E06
:103C2800D5238D03F350D327F450D423000ED52386
:103C38007D0E8F03F350D427F450D523000E8E0346
:103C4800F350D427F450D523000E8D03F350D42716
:103C5800F450D5237D0E9003F350D527000E8F0323
:103C6800F350D527000E8E03F350D527000E8D0391
:103C7800F350D52745D00101905196EC36F07D0ED2
:103C88008D03F3CFD2F0F4CFD3F0D46BD56B8E0382
:103C9800F350D327F450D423000ED5238D03F350CB
:103CA800D327F450D423000ED5237D0E8F03F35071
:103CB800D427F450D523000E8E03F350D427F450A4
:103CC800D523000E8D03F350D427F450D5237D0E51
:103CD8009003F350D527000E8F03F350D527000E1D
:103CE8008E03F350D527000E8D03F350D5270D0E04
:103CF80005D0D890D533D433D333D233E82EF9D77F
:103D0800D2C0DAF0D3C0DBF0D4C0DCF0D5C0DDF02F
:103D1800DA512008D66F4E0EDB55D76F000EDC55F2
:103D2800D86F000EDD55D96FD6C0A0F0D7C0A1F06E
:103D38008CEF05F020EE01F06451D9266551DA22A6
:103D4800DF50666F20EE05F06451D9266551DA22FE
:103D580000EE01F06451E9266551EA22DFCFEFFF5A
:103D680020EE09F06451D9266551DA2200EE05F0FB
:103D78006451E9266551EA22DFCFEFFF20EE0DF00E
:103D88006451D9266551DA2200EE09F06451E9261A
:103D98006551EA22DFCFEFFF20EE0DF06451D926FE
:103DA8006551DA2266C0DFFF20EE02F06451D926A1
:103DB8006551DA22DF50666F20EE0AF06451D92689
:103DC8006551DA2200EE02F06451E9266551EA22D3
:103DD800DFCFEFFF20EE0AF06451D9266551DA22D1
:103DE80066C0DFFF20EE0EF06451D9266551DA2255
:103DF800DF50666F20EE06F06451D9266551DA224D
:103E080000EE0EF06451E9266551EA22DFCFEFFF9C
:103E180020EE06F06451D9266551DA2266C0DFFF2C
:103E280020EE03F06451D9266551DA22DF50666F1F
:103E380020EE0FF06451D9266551DA2200EE03F026
:103E48006451E9266551EA22DFCFEFFF20EE0BF03F
:103E58006451D9266551DA2200EE0FF06451E92643
:103E68006551EA22DFCFEFFF20EE07F06451D92633
:103E78006551DA2200EE0BF06451E9266551EA2219
:103E8800DFCFEFFF20EE07F06451D9266551DA2223
:103E980066C0DFFF12000001A56F0201F00502E114
:103EA80009EC35F0340E0201F46FF45148EC3CF0A3
:103EB8000201026B036B046B056BDD69DE6BC86B7B
:103EC800C96BCA6BCB6BD46BD56B0A6B0B6B0C6B6A
:103ED8000D6B066B076B086B096BD26BD36BDC6BD6
:103EE800010EDB6FD06BD16BEE6BEF6BC86BC96BE0
:103EF800CA6BCB6B0395026B036B046B056B006B92
:103F0800016B070ED76FD66B010ED96FD86FE069BA
:103F1800A5C0A4F2126B100EED6F0001A5511AE1B5
:103F2800FF0E7D6F050E7E6FA00E7F6F270E806FD0
:103F3800BE0E816F330E826F45EC1CF0CFEC31F072
:103F480002011C6B080E186FE60E196FD30E1A6F5C
:103F5800330E19D0FF0E7D6F050E7E6F200E7F6F1A
:103F6800A20E806FD30E816F190E826F45EC1CF084
:103F780002EC32F002011C6B280E186F760E196FD6
:103F8800E80E1A6F190E1B6F010EE16FDF6B7EECE6
:103F98002BF00201A56BA66B1D0E0001646F020ECB
:103FA800656F676B666B696B690E686F21EC39F03A
:103FB800030E0201956FE80E946F070E976FD00EEF
:103FC800966F130E996F880E986F170E9B6F700E71
:103FD8009A6F070EA16FD00EA06F200EA36F400E30
:103FE800A26F9D6F9C6B9F6F9E6B0001976B966B8A
:103FF80077EF1BF0050EE126000EE222020103A175
:1040080003A529D0FF0EE36A0ED0FF0EE350020D80
:10401800A80EF324D96E020EF420DA6E020EDE1812
:1040280008E0FF0EE32AFF0EE3CF47F0A751475CF5
:10403800ECE3FF0EE350A7190EE1A751020DA80EFD
:10404800F324D96E020EF420DA6E020EDF6E100E23
:10405800A76101D0A72B03A574D0CF5106E1CC29C5
:10406800FF0ECD590F0ECE5921E3CCC264F0CDC25C
:1040780065F0CEC266F0CFC267F07D0E0001686FB2
:10408800696B6A6B6B6B1AEC30F064C04EF065C0FC
:104098004FF066C050F067C051F00C0ED8904E3605
:1040A8004F3650365136E82EF9D728D0CCC24EF0CC
:1040B800CDC24FF0CEC250F0CFC251F00C0ED89006
:1040C8004E364F3650365136E82EF9D74EC064F08A
:1040D8004FC065F050C066F051C067F07D0E00011A
:1040E800686F696B6A6B6B6B1AEC30F064C04EF0EA
:1040F80065C04FF066C050F067C051F0FB0E4EC06F
:10410800E3FFFC0E4FC0E3FFFD0E50C0E3FFFE0EC1
:1041180051C0E3FFE150FB0FD96EE250DA6EFF0E9B
:10412800DA22DECF71F0DECF72F0DECF73F0DECFB1
:1041380074F00201E75175EC36F00201E75158ECD2
:104148002EF0FA0EE126FF0EE222FF0CA86BA96BF7
:1041580096390F0BA76F010EA86F51D098C06EF05B
:1041680099C06FF09AC070F09BC071F0A8C072F04F
:10417800010E736FA1C074F0975131EC2CF09F0EB3
:10418800806F010E816F9CC082F09DC083F05EEC51
:1041980039F0A96B9E519F25D96E000EA021DA6EC9
:1041A800A851A26FA36BA23BA33BF00EA317A25189
:1041B8000F0BA313F00EA21794C0A4F095C0A5F09E
:1041C800A251A427A351A523A951A427000EA523D2
:1041D800F00EA425E96EFF0EA521EA6EEF50A66F3A
:1041E8009F0EA925E96EEA6A010EEA22EF50A61988
:1041F800DF6E9E2BA92B0F0EA965CCD7A82BA85133
:10420800A75DACE296C0A2F00F0EA217D8B40F0CAF
:1042180098C06EF099C06FF09AC070F09BC071F0B2
:10422800A8C072F0010E736FA1C074F0975131EC01
:104238002CF09F0E806F010E816F9CC082F09DC094
:1042480083F05EEC39F0A96B23D09E519F25D96E7F
:10425800000EA021DA6EA751100D94C0A2F095C0EF
:10426800A3F0F350A227F450A323A951A225E96E85
:10427800000EA321EA6EEF50A46F9F0EA925E96EE8
:10428800EA6A010EEA22EF50A419DF6E9E2BA92BD1
:1042980096C0A2F00F0EA217A251A95DD6E3120094
:1042A80070C0D9FF71C0DAFFDF50766F704B712B89
:1042B80070C0D9FF71C0DAFFFF0EDE14726FFF0EF7
:1042C800DE14736FFF0EDE14746F000EDE14756F4C
:1042D80072C064F073C065F074C066F075C067F0B2
:1042E800640E686F696B6A6B6B6B9CEC2EF064C034
:1042F80072F065C073F066C074F067C075F0030EA5
:104308007027000E712372C064F073C065F074C02A
:1043180066F075C067F0BAEC33F000090AE10201F3
:10432800A751020DA90EF324D96E020EF420DA6EFD
:10433800DF86000176510F0B8EEC3BF000090AE195
:104348000201A751020DA90EF324D96E020EF42022
:10435800DA6EDF8800017639070B84EC3BF0000940
:104368000AE10201A751020DA90EF324D96E020E2B
:10437800F420DA6EDF8A0201A751020DA90EF32498
:10438800D96E020EF420DA6EDFA829D0A751020DEB
:10439800A90EF324D96E020EF420DA6EDFA61FD020
:1043A800A751020DA90EF324D96E020EF420DA6E7D
:1043B800DFAA15D000017639070B0201EF6F72C032
:1043C80064F073C065F074C066F075C067F00001F2
:1043D80076510F0B686F6EEC3BF00201038F70C0D3
:1043E80070F071C071F0120000019A699B699C69B4
:1043F8009D699E6B5BD000019E510E0D040EF32447
:10440800D96E040EF420DA6EDE044EE19E510E0DD4
:10441800080EF324D96E040EF420DA6EDE50DE1096
:10442800DE10DE1041E09E510E0D080EF324D96E09
:10443800040EF420DA6EDE509A5DDE509B59DE5091
:104448009C59DE509D5930E39E510E0D050EF32404
:10445800D96E040EF420DA6EDF500F0B966F96516A
:104468000201DF5D21E300019E510E0D050EF324CC
:10447800D96E040EF420DA6EDF380F0B966F020146
:10448800DF510001965D10E39E510E0D080EF324D6
:10449800D96E040EF420DA6EDECF9AF0DECF9BF0F0
:1044A800DECF9CF0DECF9DF000019E2B9E510201D5
:1044B800ED5DA1E20251F00B0609026F9AC096F079
:1044C8009BC097F09CC098F09DC099F00C0ED890B6
:1044D80000019637973798379937E82EF8D796C05E
:1044E80064F097C065F098C066F099C067F07D0EDB
:1044F800686F696B6A6B6B6B1AEC30F064C071F0B3
:1045080065C072F066C073F067C074F00201E651CE
:1045180075EC36F00201E65158EF2EF0E652E652FD
:10452800E652E652020100950289F00E0217D06B9E
:10453800D16BEE6B03A574D0CF5106E1CC29FF0EE9
:10454800CD590F0ECE5921E3CCC264F0CDC265F02F
:10455800CEC266F0CFC267F07D0E0001686F696B4E
:104568006A6B6B6B1AEC30F064C04EF065C04FF0AC
:1045780066C050F067C051F00C0ED8904E364F36DA
:1045880050365136E82EF9D728D0CCC24EF0CDC2DD
:104598004FF0CEC250F0CFC251F00C0ED8904E362C
:1045A8004F3650365136E82EF9D74EC064F04FC01A
:1045B80065F050C066F051C067F07D0E0001686F6D
:1045C800696B6A6B6B6B1AEC30F064C04EF065C0B7
:1045D8004FF066C050F067C051F0FC0E4EC0E3FFCC
:1045E800FD0E4FC0E3FFFE0E50C0E3FFFF0E51C0AB
:1045F800E3FFE150FC0FD96EE250DA6EFF0EDA22CB
:10460800DECF71F0DECF72F0DECF73F0DECF74F064
:104618000201E75175EC36F00201E75158EC2EF033
:104628000001EA51EB110BE001D809D00500FA6E40
:10463800EA51FD6EEB51FE6EFF6AFA50010CFB0E5B
:10464800E126FF0EE222FF0C0001DA6BE00E646F38
:10465800040E656F676B666B010E696F0F0E686FEE
:1046680021EC39F01F0ED917FC0ED917E30ED91714
:1046780024EEE0F0D9C0DFFFDA2BDB6BDB51590801
:10468800D96E000ED8A0E82A0208DA6EE00ED36FC1
:10469800040ED46FDA51D327000ED423DB51D3256F
:1046A800E96E000ED421EA6EDFCFEFFFDB2B070E99
:1046B800DB65E4D7080EDA27DB6BDB516108D96EBE
:1046C800000ED8A0E82A0208DA6EE00ED36F040EB6
:1046D800D46FDA51D327000ED423DB51D325E96EEA
:1046E800000ED421EA6EDFCFEFFFDB2B070EDB6570
:1046F800E4D7080EDA2778697769F1EC39F077C0E2
:10470800D2F278C0D3F2E00EDA25646F656B040E3E
:104718006523D20E666F020E676F696B020E686FB3
:1047280014EC34F0020EDA27420ECA6F020ECB6F79
:10473800E00ECC6F040ECD6FDAC0CEF069EC34F029
:10474800CAC0D5F0CBC0D6F0CCC0D7F0CDC0D8F019
:10475800E00EDA25646F656B040E6523D50E666F6F
:10476800676B696B040E686F14EC34F0040EDA277B
:10477800DA511200666F000166510E0D040EF32423
:10478800D96E040EF420DA6E64C0DFFF66510E0D98
:10479800040EF324D96E040EF420DA6EDF500CE117
:1047A80066510E0D080EF324D96E040EF420DA6E4D
:1047B800DE6ADE6ADE6ADD6A676B4ED067510E0D0F
:1047C800050EF324D96E040EF420DA6EDF500F0BB9
:1047D8000001656F0201EB510001655D16E267514A
:1047E8000E0D040EF324D96E040EF420DA6EDE04E6
:1047F8000CE167510E0D050EF324D96E040EF4205A
:10480800DA6EDF500F0B0201EB6F000167510E0DDE
:10481800050EF324D96E040EF420DA6EDF380F0B80
:104828000201EC6117D0000167510E0D040EF3244C
:10483800D96E040EF420DA6EDE040CE167510E0D19
:10484800050EF324D96E040EF420DA6EDF380F0B50
:104858000201EC6F0001672B0201ED510001675D59
:10486800ADE30201DF51EC5D02E2ECC2DFF2EB5195
:10487800DF5DD8A0EBC2DFF2120021EEB3F000EE4C
:104888009BF00F0EDBCFEBFFE806FCE2AB0E646F8C
:10489800656B676B666B696B100E686F21EC39F09E
:1048A800AB0E806F816B94C082F095C083F05EEC94
:1048B80039F0ABBF0CD0AB0E646F656B96C066F079
:1048C80097C067F0100E686FA2EC35F01ED0AB0EE3
:1048D800646F656B96C066F097C067F0100E686FDE
:1048E800A2EC35F0BB6BBB519B0FD96EDA6ADF5077
:1048F8009A6FBB519625D96E000E9721DA6E9A51A0
:10490800DF1ABB2B0F0EBB65EED796C0D9FF97C039
:10491800DAFFDFBE0CD096C064F097C065F098C08F
:1049280066F099C067F0100E686FA2EF35F096C078
:1049380064F097C065F098C066F099C067F0100EF3
:10494800686FA2EC35F0BB6BBB519825D96E000E91
:104958009921DA6EBB519B0FE96EEA6AEF509A6FA4
:10496800BB519825E96E000E9921EA6EEF509A190D
:10497800DF6EBB2B0F0EBB65E7D70F0C666F070EFC
:104988000201EB6FEC6B000166510E0D050EF3246E
:10499800D96E040EF420DA6E64C0DFFF66510E0D86
:1049A8000D0EF324D96E040EF420DA6E000EDB82AD
:1049B800676B4ED067510E0D050EF324D96E040EA9
:1049C800F420DA6EDF500F0B0001656F0201EB5126
:1049D8000001655D16E267510E0D040EF324D96ED1
:1049E800040EF420DA6EDE040CE167510E0D050E9C
:1049F800F324D96E040EF420DA6EDF500F0B020197
:104A0800EB6F000167510E0D050EF324D96E040EED
:104A1800F420DA6EDF380F0B0201EC6117D00001C9
:104A280067510E0D040EF324D96E040EF420DA6ECD
:104A3800DE040CE167510E0D050EF324D96E040E49
:104A4800F420DA6EDF380F0B0201EC6F0001672BE0
:104A58000201ED510001675DADE30201DF51EC5D3C
:104A680002E2ECC2DFF2EB51DF5DD8A0EBC2DFF26D
:104A78001200E652020103B170D0D951D75D52E35A
:104A880057EC35F0516E0D0E5126FF0E51C0E3FF65
:104A9800E350476E486A0201D451475CD5514858E3
:104AA80033E3010E2CEC33F000092BE1F00E966F86
:104AB800040E976FD4C298F0E2EC17F096C047F056
:104AC80097C048F0475048101CE102010251F00B12
:104AD8000109026FD92BD9B142D0DF5140E0D95139
:104AE800476E486AD751506E516A502A000E5122BB
:104AF8004750501803E14850511831E08AEC2CF027
:104B08002ED0FFEC30F02BD0CDEC3BF00001E8517B
:104B1800E91125E0676B686B696B040E6A6F01D851
:104B28001ED012D0D951D75D1AE203B118D0CDECFE
:104B38003BF00001E851E91112E0000E676B686B69
:104B4800696B6A6B01D80BD00500FA6EE851FD6EEF
:104B5800E951FE6EFF6AFA501200CDEC3BF0E552C7
:104B6800E55212000001886989698A698B69A4EC99
:104B780026F06CC084F06DC085F06EC086F06FC002
:104B880087F08C6B5AD08C51080D040EF324D96E23
:104B9800030EF420DA6EDE044FE18C51080D000E8E
:104BA800F324D96E030EF420DA6EDE50845DDE50F5
:104BB8008559DE508659DE5087590DE38C51080D12
:104BC800000EF324D96E030EF420DA6EDE6ADE6A74
:104BD800DE6ADD6A31D08C51080D000EF324D96EDF
:104BE800030EF420DA6E8451DE5E8551DE5A86515A
:104BF800DE5A8751DE5A8C51080D000EF324D96E07
:104C0800030EF420DA6E8851DE5C8951DE588A5131
:104C1800DE588B51DE5810E28C51080D000EF3243B
:104C2800D96E030EF420DA6EDECF88F0DECF89F07D
:104C3800DECF8AF0DECF8BF08C2BEF518C5DA3E3B7
:104C480088C07CF089C07DF08AC07EF08BC07FF080
:104C580012008DEC3AF001C03EF002C03FF00001B6
:104C6800F2053DE1F26BEC513E5C0D6EED513F58A3
:104C78000E6E0F6AD8A00F060F50106E36500D5CDE
:104C8800116E37500E58126E38500F58136E395037
:104C98001058146E3A501124156E3B501220166E9F
:104CA8003C501320176E3D501420186E000E15242A
:104CB800326E000E1620336E010E1720346E000E71
:104CC8001820356E3EC036F03FC037F0386A396A72
:104CD8003A6A3B6A3C6A3D6AEC6BED6B28D0EC5152
:104CE8003E5C0D6EED513F580E6E0F6A106A3650DD
:104CF8000D5C116E37500E58126E38500F58136EE7
:104D080039501058146E3A501124326E3B5012200C
:104D1800336E3C501320346E3D501420356E3250A3
:104D2800362633503722345038223550392232C093
:104D380009F033C00AF034C00BF035C00CF0120093
:104D48007EEC3AF064C03EF065C03FF0F2053DE10C
:104D5800F26BEC513E5C706FED513F58716F726BA6
:104D6800D8A072077251736F3650705D746F3750E8
:104D78007159756F38507259766F39507359776F0A
:104D88003A507425786F3B507521796F3C507621E5
:104D98007A6F3D5077217B6F000E7825326E000EBA
:104DA8007921336E010E7A21346E000E7B21356E27
:104DB8003EC036F03FC037F0386A396A3A6A3B6A13
:104DC8003C6A3D6AEC6BED6B28D0EC513E5C706F31
:104DD800ED513F58716F726B736B3650705D746F25
:104DE80037507159756F38507259766F39507359F9
:104DF800776F3A507425326E3B507521336E3C50B4
:104E08007621346E3D507721356E32503626335038
:104E18003722345038223550392232C06CF033C032
:104E28006DF034C06EF035C06FF01200256826684A
:104E3800276828682DEC26F009C021F00AC022F066
:104E48000BC023F00CC024F0296A5AD02950080D51
:104E5800040EF324D96E030EF420DA6EDE044FE15B
:104E68002950080D000EF324D96E030EF420DA6ED3
:104E7800DE50215CDE502258DE502358DE50245884
:104E88000DE32950080D000EF324D96E030EF4200B
:104E9800DA6EDE6ADE6ADE6ADD6A31D02950080D14
:104EA800000EF324D96E030EF420DA6E2150DE5E74
:104EB8002250DE5A2350DE5A2450DE5A2950080D5B
:104EC800000EF324D96E030EF420DA6E2550DE5C52
:104ED8002650DE582750DE582850DE5810E2295058
:104EE800080D000EF324D96E030EF420DA6EDECF1F
:104EF80025F0DECF26F0DECF27F0DECF28F0292AF6
:104F0800EF51295CA3E325C019F026C01AF027C089
:104F18001BF028C01CF012000001826F816B82C058
:104F280077F0786BF1EC39F07729836F83C080F0E4
:104F380054D0846B47D084510E0D040EF324D96EDF
:104F4800040EF420DA6EDE043BE184510E0D080EE7
:104F5800F324D96E040EF420DA6EDE50DE10DE1073
:104F6800DE102EE184510E0D050EF324D96E040EC9
:104F7800F420DA6EDF500F0B00017C6F7C510201C8
:104F8800DF5D1EE3000184510E0D050EF324D96E7A
:104F9800040EF420DA6EDF380F0B7C6F0201DF514C
:104FA80000017C5D0DE379510AE184510E0D0C0E70
:104FB800F324D96E040EF420DA6EDE0401E18307CF
:104FC8000001842B8251845D02E28351B4E1805157
:104FD800831903E1090E816F02D08351AAE184513C
:104FE80007E084057AC0D9FF7BC0DAFFDF6E02D004
:104FF800090E816F8151120071C064F072C065F0B2
:1050080073C066F074C067F0090E0001686F3D0E4A
:10501800696F6A6B6B6B1AEC30F064C079F065C02D
:105028007AF066C07BF067C07CF071C064F072C033
:1050380065F073C066F074C067F0090E686F3D0EC6
:10504800696F6A6B6B6BFBEC32F064C075F065C01E
:1050580076F066C077F067C078F07BC07CF07AC0E5
:105068007BF079C07AF0796B77C078F076C077F00A
:1050780075C076F0756B75C064F076C065F077C062
:1050880066F078C067F0090E686F3D0E696F6A6B4D
:105098006B6B1AEC30F064C075F065C076F066C0D2
:1050A80077F067C078F07551792776517A23775170
:1050B8007B2378517C237BC066F0060E6FEC3AF0B8
:1050C8007AC066F0070E6FEC3AF079C066F0080E09
:1050D8006FEF3AF06E6F0001695108E1060E6E1924
:1050E800D8B41200070E6E1901E11200070E6E17F0
:1050F800010E691798EC39F06F6F6FAF03D0010E8E
:105108006B6F01D06B6B6F51070B6D6F6B5169192A
:1051180018E06D5108E06F51F80B666F010E6FECE7
:105128003AF000016D6B695103E1780E6F1704D0F6
:105138006F51780B80096F6F6FC066F0010E6FECCE
:105148003AF000016D516E19D8B412006E5112E098
:105158006A0510E1410E98EC39F06C6F695103E172
:10516800300E6C1302D0CF0E6C176CC066F0410E77
:105178006FEC3AF0F80E00016F176E516F136FC0A5
:1051880066F0010E6FEC3AF000016A05D8A412002F
:105198006E5105E088EC3CF00009FCE01200010EBD
:1051A800646F656B666B676B0CEF39F0120E98ECE9
:1051B80039F0E26F700E666F120E6FEC3AF0000174
:1051C800E251500B500AD8A41200010192519CECF4
:1051D8003AF01C0E98EC39F0E36F0101855104E0B8
:1051E8000001E2ABE3AD37D0130E98EC39F00101C2
:1051F8008D6F0001666B0D0E6FEC3AF0A6EC3CF07B
:10520800000E4DEC3CF00001E36B0DD0E3510101C1
:105218008E25D96E000E8F21DA6EFF0E4DEC3CF014
:10522800DF6E0001E32B01018D510001E35DEEE328
:10523800A4EC3CF001018C85190E98EC39F00101C1
:105248009B6F040E0001646F01019B5140EC34F028
:1052580001019B6F02D001018C8781C169F0000EAA
:1052680000016A6F6EEC28F001018C938EC166F123
:105278008FC167F18DC168F14CEF00F000016A6FD2
:105288000101865127E100016A51800A830F02E279
:10529800FD0E6A6F6A51800A700F02E30F0E6A6F83
:1052A8004D0E98EC39F0696FF80E6917698569C079
:1052B80066F04D0E6FEC3AF000016AAF05D0030EB0
:1052C8006A276A51200902D06A517009666F090E6F
:1052D8006FEF3AF000016A51800A7E0F02E2020E77
:1052E8006A6F6A51800A6C0F02E3140E05D06A5186
:1052F800800A6E0F02E3110E6A6F0B0E98EC39F0FC
:10530800686F4D0E98EC39F0696FF80E6917140E36
:105318006A1906E1070E69130F0E6A6F689B04D0BD
:105328006985FE0E6A27688B69C066F04D0E6FECC2
:105338003AF000016A518009666F090E6FEC3AF085
:1053480068C066F00B0E6FEF3AF0020103B157D058
:1053580082EC3CF0516E51B24ED002010251F00B7A
:105368000509026F60EC3AF085EC3CF018C276F063
:1053780019C277F01AC278F01BC279F002011C51E9
:1053880085EC39F0020112512FE1850E1C25F66ECD
:10539800F76AFF0EF722F86A000EF8220800F550A7
:1053A8000001966F976BEAEC15F096C047F097C02E
:1053B80048F0475048102BE0CDEC3BF0C6EC3BF0F2
:1053C8000001E851E91123E0000E676B686B696B17
:1053D8006A6B01D81CD00500FA6EE851FD6EE951E0
:1053E800FE6EFF6AFA5012000251F00B0909026FB3
:1053F80099EC32F00CD0010E0201F16F08D000A533
:1054080002D000950299C6EC3BF0CDEC3BF0E5529A
:105418001200DC6F020103A102BF120002A91200F0
:105428000001D65103E1D95101E0120057EC35F0E3
:10543800DA6FD951DA5D01E212000201062908E1AA
:10544800072906E1082904E1092902E10483120079
:1054580002510F0B03E0125101E11200010E2CEC76
:1054680033F0DB6FDB5101E01200020E020112196A
:1054780002E160EC3AF0D6C0CAF0D7C0CBF0D8C091
:10548800CCF0D9C0CDF00001CE6BDC5116EC0FF09A
:10549800F00E0001966F040E976FD4C298F0E2ECFC
:1054A80017F096519711D8A412000201062B000E8E
:1054B8000723082309230001DC0502E1020100811A
:1054C8000201008B0251F00B0109026F120000016A
:1054D8006A6B6B6B53D06B51020DA80EF324D96E17
:1054E800020EF420DA6EDE2848E0FE0E646F65696D
:1054F8006B51020DA80EF324D96E020EF420DA6E59
:10550800DF50666F676B6451662765516723940E99
:105518006625F66EFF0E6721F76EF86A000EF82210
:105528000800F5506AC068F0696B6827000E6923A7
:1055380069BF05D0695127E1100E685D24E2FE0EAF
:10554800646F65696B51020DA80EF324D96E020EC3
:10555800F420DA6EDF50666F676B64516627655119
:105568006723940E6625F66EFF0E6721F76EF86ABC
:10557800000EF8220800F5506A276B2B0201A7518C
:1055880000016B5DA8E36A511200480E0001646FC8
:10559800560E656F666B0201E25156EC38F0520EFA
:1055A800646F530E656F666B0201E35156EC38F079
:1055B800FC0E646F3F0E656F666B0201E75156EC97
:1055C80038F0480E646F560E656F666B0201E45141
:1055D80056EC38F0520E646F530E656F666B02011D
:1055E800E55156EC38F07A0E646F4A0E656F666BBB
:1055F8000201E85156EC38F0840E646F740E656F42
:10560800666B0201E65156EC38F0D20E646F620EFA
:10561800656F666B0201EA5156EC38F0240E646F30
:10562800450E656F666B0201F35156EC38F0200E9B
:10563800646F210E656F666B0201E95156EF38F011
:10564800E652E652E652E652020103B14ED0020E8D
:10565800121902E160EC3AF00201EF51175D04E320
:10566800EF51175D176F01D0176BACEC3BF064C0BE
:105678004EF065C04FF066C050F067C051F0FC0EA8
:105688004EC0E3FFFD0E4FC0E3FFFE0E50C0E3FF28
:10569800FF0E51C0E3FF0251F00B0309026F85ECC6
:1056A8003CF0E150FC0FD96EE250DA6EFF0EDA22C0
:1056B800DECF76F0DECF77F0DECF78F0DECF79F090
:1056C8000201175185EC39F0850E02011725F66E97
:1056D800F76AFF0EF722F86A000EF8220800F55064
:1056E8000001966F976BEAEC15F0FB0EE126FF0EB2
:1056F800E222FF0C070EEB6FEC6B0001656B4ED0DE
:1057080065510E0D050EF324D96E040EF420DA6EE1
:10571800DF500F0B0001646F0201EB510001645D63
:1057280016E265510E0D040EF324D96E040EF42012
:10573800DA6EDE040CE165510E0D050EF324D96E08
:10574800040EF420DA6EDF500F0B0201EB6F00013C
:1057580065510E0D050EF324D96E040EF420DA6E91
:10576800DF380F0B0201EC6117D0000165510E0DF7
:10577800040EF324D96E040EF420DA6EDE040CE174
:1057880065510E0D050EF324D96E040EF420DA6E61
:10579800DF380F0B0201EC6F0001652B0201ED51A0
:1057A8000001655DADE31200F29E0001E16B50D08F
:1057B800E151080D040EF324D96E030EF420DA6EBD
:1057C800DE0444E1E151080D000EF324D96E030E06
:1057D800F420DA6EDE50DE10DE10DE1037E1E15123
:1057E800080D040EF324D96E030EF420DA6EDF6A76
:1057F800E151080D060EF324D96E030EF420DA6E7B
:10580800DE50DE1023E0F28EE151080D050EF32480
:10581800D96E030EF420DA6EDF50E66EE151080D02
:10582800060EF324D96E030EF420DA6EDECFDDF017
:10583800DDCFDEF001D809D00500FA6EDD51FD6E2E
:10584800DE51FE6EFF6AFA501200F29E0001E12B53
:10585800EF51E15DADE3F28E1200756F0001766BDA
:105868009F0E646F010E656F676B666B696B100E38
:10587800686F21EC39F073C09FF1050E76279F0EF3
:105888007625D96EDA6A010EDA2275C0DFFF762B2B
:10589800745112E19F0E7625646F656B010E6523C6
:1058A8001E0E666F020E676F696B040E686F14EC4C
:1058B80034F0040E762710D09F0E7625646F656B42
:1058C800010E6523620E666F020E676F696B040E28
:1058D800686F14EC34F0EDD79F0E7625646F656B16
:1058E800010E65236E0E666F676B696B040E686F39
:1058F80014EC34F0040E7627762B9F0E7625D96E9D
:10590800DA6A010EDA2272C0DFFF12000001656B4D
:105918000201DF51EB5D4AE2DF050001676F3AD013
:10592800666B2BD066510E0D050EF324D96E040E4E
:10593800F420DA6EDF500F0B0001646F6451675D6D
:105948001BE366510E0D050EF324D96E040EF420E8
:10595800DA6EDF380F0B646F6751645D0DE36651D3
:105968000E0D040EF324D96E040EF420DA6EDE0454
:1059780003E1010E656F06D0662B0201ED510001AF
:10598800665DD0E3655106E167510201EB5D02E215
:10599800000167070001655105E10201EB510001B3
:1059A800675DBEE2650502E167C0DFF2000165518F
:1059B8001200DE0EF66E700EF76E000EF86E01EE37
:1059C800B3F020EE31F00900F5CFEEFFDD50D950ED
:1059D800FAE1AE0EF66E780EF76E000EF86E00EE77
:1059E80052F020EE09F00900F5CFEEFFDD50D95056
:1059F800FAE104EEE0F022EE1EF0EE6ADD50D95036
:105A0800FCE1DA50FAE104EE00F0E00EEE6AE80696
:105A1800FDE103EE00F0A00EEE6AE806FDE102EEFD
:105A280000F0F50EEE6AE806FDE101EE69F04A0EB7
:105A3800EE6AE806FDE100EEE8F00B0EEE6AE80615
:105A4800FDE100EE32F0140EEE6AE806FDE1000119
:105A58007DEF2DF03F0E98EC39F0E26FE2A51200D1
:105A6800010192519CEC3AF0010191519CEC3AF001
:105A7800A6EC3CF0000E4DEC3CF0FF0E4DEC3CF07B
:105A880001018D6F0001E36B0DD0E35101018E25FB
:105A9800D96E000E8F21DA6EFF0E4DEC3CF0DF6EF2
:105AA8000001E32B01018D510001E35DEEE3A4EC5D
:105AB8003CF081C169F0000E00016A6F6EEC28F0BD
:105AC80001018C93800E9B6F850503E10001E2A321
:105AD80003D001018C8502D001018C958CA571EF52
