:0400000048EF00F0D5
:10000800FACF2AF0FBCF2BF0E1CF2CF0E2CF2DF086
:10001800D9CF2EF0DACF2FF0F3CF30F0F4CF31F084
:1000280019EEBCF0F0B6F0A003D04DEC3CF01BD0BC
:10003800F0B8F0A203D047EC3CF015D0F2BCA0A277
:1000480005D0A1A203D0A3EC3BF00DD0F2BC9DA03B
:1000580005D09EA003D0AAEC3BF005D0F2B6F2A0E2
:1000680002D00CEC3CF031C0F4FF30C0F3FF2FC0DD
:10007800DAFF2EC0D9FF2DC0E2FF2CC0E1FF2BC054
:10008800FBFF2AC0FAFF110016EEFEF0CEEF2CF0AF
:100098003EEC3CF0020103B150EF05F066C1D9FF18
:1000A80067C1DAFFDF5001016B6F6B39E832070B6C
:1000B800E80601E0C5D002011D5101E0C1D00101EF
:1000C8006805716F1FD0685166250001DD6F000E4D
:1000D800010167210001DE6F010171510001DD5D41
:1000E800806FDE51D8A0DE05816F420E826F020E4E
:1000F800836F19EC39F0100E0101716502D0715F40
:1001080001D0716B7151DFE1420E0001CA6F020E1E
:10011800CB6F66C1CCF067C1CDF001016851FC0F0F
:100128000001CE6F54EC34F0CAC074F1CBC075F145
:10013800CCC076F1CDC077F166C16EF067C16FF0C3
:1001480068C170F03FEC36F06EC06CF16FC06DF1B5
:1001580070C06EF171C06FF1010174516C1909E141
:1001680075516D1906E176516E1903E177516F19D2
:1001780011E0020102510F0B050A02E166EF39F0A6
:1001880002510F0B030AD8A41200F151D8B412007F
:1001980066EF39F0020102510F0B030A03E1E35144
:1001A80057EC3AF066C178F167C179F1010120EEA8
:1001B80007F07851D9267951DA22DECF1EF2DECF48
:1001C8001FF2DECF20F2DECF21F220EE0CF07851C4
:1001D800D9267951DA22DF500F0B68EC35F001018E
:1001E80020EE0BF07851D9267951DA22DF38070B47
:1001F8000001646F010120EE0BF07851D926795186
:10020800DA22DF500F0BB9EC3AF078C170F079C1FF
:1002180071F001016851CAEC18F078C194F079C105
:1002280095F011EC2FF0E66A83EC22F00201066BE0
:10023800076B086B096B0A6B0B6B0C6B0D6B120071
:1002480001016B39E832070B030A07E06B39E83222
:10025800070B050A02E087EF31F00201A76B66C1C0
:100268007BF167C17CF1020E121901E083D1010113
:1002780020EE01F07B51D9267C51DA22020162512D
:10028800DE1809E16351DE1806E16451DE1803E166
:100298006551DE18D8A46ED104A56CD17BC164F079
:1002A8007CC165F046EC30F0000907E1020102511B
:1002B800F00B0909026F84EF32F0010120EE06F01D
:1002C8007B51D9267C51DA22DECFDDF0DDCFDEF09E
:1002D800DDC06EF0DEC06FF00001706B716B010164
:1002E8006851FC0F0001726F490E736F010E746F35
:1002F80022EC2CF0EF0E646F050E656FB40E666F7E
:10030800010E676F696B100E686FFFEC33F0FF0E1C
:10031800646F050E656F66C166F067C167F0FC0E15
:10032800010168250001686F696BFF0E6923FFEC06
:1003380033F0660EBC6F020EBD6FB40EBE6F010EB9
:10034800BF6FEF0EC06F050EC16F010168510C0F32
:100358000001C26FFDEC0BF0740E646F010E656F47
:10036800B40E666F010E676F696B040E686FFFEC61
:1003780033F066C16EF067C16FF068C170F03FEC92
:1003880036F06EC06CF16FC06DF170C06EF171C067
:100398006FF101016C51741989E16D51751986E18C
:1003A8006E51761983E16F51771980E120EE06F0DE
:1003B8007B51D9267C51DA2202010E51DE5C0F51A5
:1003C800DE5834E3010120EE06F07B51D9267C513A
:1003D800DA22DECFDDF0DDCFDEF002010E510001C2
:1003E800DD5F02010F510001DE5BDD5102019E5D00
:1003F8000001DE5102019F590DE20001E851E911A7
:1004080001E154D7646B656B666B050E676F01D8A5
:100418004DD7A7D0010120EE06F07B51D9267C519B
:10042800DA22DECF0EF2DDCF0FF213D0010120EE7B
:1004380006F07B51D9267C51DA22DE50DE10DDE150
:1004480002010E29DAE10F29D8E10E6B0F6B104B70
:10045800112B02010E2907E10F2905E1102903E1FB
:10046800112901E1CAD702510F0B080A08E1E4512A
:1004780057EC3AF00201E55157EC3AF007D0025137
:100488000F0B030A03E1E55157EC3AF0080E01019E
:100498006627000E672368510001DD6FDE6B0101DE
:1004A80020EE05F07B51D9267C51DA22DF500F0B64
:1004B8000001DF6FE06B0C0EDF27000EE023DD513B
:1004C800DF1903E1DE51E01935E066C1D9FF67C1E4
:1004D800DAFFDF500101696F664B672B6851F40F33
:1004E8007A6F190E706F66C194F067C195F07A053E
:1004F8000001966F010E976F0EC298F00FC299F027
:1005080010C29AF011C29BF0760E9C6F020E9D6F7E
:1005180070C19EF0EF0E9F6F050EA06F010EA16FC8
:100528009BEC20F0FF0E01016625726FFF0E67211C
:10053800736F04D001017A6B726B736B02010383D2
:10054800F00E02170001E851E91101E1AFD672C1BE
:1005580064F073C165F07AC166F0010E676F01D867
:10056800A5D60500FA6EE851FD6EE951FE6EFF6AE8
:10057800FA501200010120EE01F07B51D9267C517E
:10058800DA2202011E51DE1809E11F51DE1806E1C8
:100598002051DE1803E12151DE1808E087EC31F024
:1005A800020E0201121901E181D61200010120EEAA
:1005B80006F07B51D9267C51DA22DECFDDF0DDCF83
:1005C800DEF0DDC06EF0DEC06FF00001706B716BA5
:1005D80001016851FC0F0001726F490E736F746B53
:1005E800010E22EC2CF0EF0E646F050E656FB40E51
:1005F800666F010E676F696B100E686FFFEC33F062
:10060800FF0E646F050E656F66C166F067C167F01F
:10061800FC0E010168250001686F696BFF0E6923F4
:10062800FFEC33F0220EBC6F020EBD6FB40EBE6F2E
:10063800010EBF6FEF0EC06F050EC16F010168514B
:100648000C0F0001C26FFDEC0BF0740E646F010E0D
:10065800656FB40E666F010E676F696B040E686F85
:10066800FFEC33F066C16EF067C16FF068C170F0DF
:100678003FEC36F06EC06CF16FC06DF170C06EF17A
:1006880071C06FF101016C51741909E16D5175194F
:1006980006E16E51761903E16F51771903E087EC93
:1006A80031F07ED720EE06F07B51D9267C51DA2234
:1006B80002010A51DE5C0B51DE5844E3010120EED1
:1006C80006F07B51D9267C51DA22DECFDDF0DDCF72
:1006D800DEF002010A510001DD5F02010B51000149
:1006E800DE5BDD5102019C5D0001DE5102019D5976
:1006F8001DE20091F00E02170001E851E91113E024
:100708000201009B000E0001646B656B666B676BF2
:1007180001D809D00500FA6EE851FD6EE951FE6E68
:10072800FF6AFA5012000201039336D0010120EE4D
:1007380006F07B51D9267C51DA22DECF0AF2DDCFD2
:100748000BF221D0010120EE06F07B51D9267C5115
:10075800DA22DE50DE1014E102010A2911E10B2928
:100768000FE1010120EE06F07B51D9267C51DA22F7
:10077800DECF0AF2DDCF0BF202010C4B0D2B03D0BA
:1007880087EC31F00DD702010A2909E10B2907E1AD
:100798000C2905E10D2903E10483020E03D7025158
:1007A8000F0B030A03E1E55157EC3AF0010E020181
:1007B800D86F7BC164F07CC165F047EC33F0010170
:1007C80020EE05F07B51D9267C51DA22DF500F0B41
:1007D8001BE0080E7B2500017A6F000E01017C21C9
:1007E80000017B6F010120EE05F07B51D9267C5179
:1007F800DA22DF500F0B00017C6FDBEC16F07AC0B9
:1008080066F17BC067F104D0080E6627000E6723E7
:10081800010168510001DD6FDE6B010120EE05F07A
:100828007B51D9267C51DA22DF500F0B0001DF6F94
:10083800E06B0C0EDF27000EE023DD51DF1904E129
:10084800DE51E01901E194D066C1D9FF67C1DAFF32
:10085800DF500101696F664B672B20EE05F07B5175
:10086800D9267C51DA22DF500F0B0001DD6FDD51F4
:100878000101685DF40F7A6F20EE05F07B51D926EF
:100888007C51DA22DF500F0B190F706F695126E087
:1008980066C194F067C195F07A050001966F010E64
:1008A800976F0AC298F00BC299F00CC29AF00DC269
:1008B8009BF0320E9C6F020E9D6F70C19EF0EF0E82
:1008C8009F6F050EA06FA16B9BEC20F0FF0E01013E
:1008D8006625726FFF0E6721736F4ED06851000155
:1008E800DD6FDE6B010120EE05F07B51D9267C51CE
:1008F800DA22DF500F0B0001DF6FE06B0D0EDF27F0
:10090800000EE023DD51DF5DE051800AE16FDE512A
:10091800800AE1592DE266C194F067C195F00101A2
:100928007A050001966F010E976F0AC298F00BC204
:1009380099F00CC29AF00DC29BF0220E9C6F020E29
:100948009D6F70C19EF0EF0E9F6F050EA06FA16B9B
:100958009BEC20F066C17AF067C17BF001017A0553
:1009680000017C6FDBEC16F07AC066F17BC067F1A2
:1009780001017A6B726B736B010E0201D86FD06B39
:10098800D16BEE6B0099038300A14DD0010120EEDD
:1009980005F07B51D9267C51DA22DFAA41D0020129
:1009A8000091F00E02170001E851E91116E002016A
:1009B800009B72C164F073C165F07AC166F0010EE4
:1009C8000001676F01D809D00500FA6EE851FD6E85
:1009D800E951FE6EFF6AFA5012000201039302BB4E
:1009E80000BBDED500B302D000A7DAD5010E0001A6
:1009F800796F6A0E7A6F010E7B6F0201ED5181ECFF
:100A080027F000090AE1000ED66FD76FD86FD96FAB
:100A1800FEEC29F002010097C3D5E9EC21F0C0D51E
:100A2800B7EC30F0BDD5F00E02170001E851E9111E
:100A380016E00201009B72C164F073C165F07AC1CF
:100A480066F0010E0001676F01D809D00500FA6E43
:100A5800E851FD6EE951FE6EFF6AFA50120002017C
:100A680002BB00BB9DD500B302D000A799D5010EEB
:100A78000001796F6A0E7A6F010E7B6F0201ED51EA
:100A880081EC27F00009C9E1000ED66FD76FD86F47
:100A9800D96FFEEC29F0BED70001E851E911D8B4AE
:100AA80012003BEC3CF00001DD6FDDB711D066C1F0
:100AB80064F067C165F068C166F0030E676F0500F2
:100AC800FA6EE851FD6EE951FE6EFF6AFA501200A7
:100AD80066C164F067C165F068C166F0020E676FB1
:100AE8000500FA6EE851FD6EE951FE6EFF6AFA5094
:100AF8001200020103B19BEF09F00001C46BC56B42
:100B0800C66BC76BC86BCD69CE69CF69D069020166
:100B1800F16B0251F00B0209026FDAC2D1F000A5A5
:100B280010D17D0E1725F66EF76AFF0EF722F86AC8
:100B3800000EF8220800F5CFA2F098510001A22576
:100B4800A36F000EA2BFFF0E020199210001A46F3E
:100B5800A56BA66B0C0ED890A337A437A537A6377C
:100B6800E82EF9D7A3C064F0A4C065F0A5C066F06C
:100B7800A6C067F07D0E686F696B6A6B6B6B0BECD8
:100B880030F064C071F065C072F066C073F067C081
:100B980074F00201E25160EC36F07D0E02011C2572
:100BA800F66EF76AFF0EF722F86A000EF8220800C0
:100BB800F5CFA2F09A510001A225A36F000EA2BFA3
:100BC800FF0E02019B210001A46FA56BA66B0C0E02
:100BD800D890A337A437A537A637E82EF9D7A3C0EE
:100BE80064F0A4C065F0A5C066F0A6C067F07D0EED
:100BF800686F696B6A6B6B6B0BEC30F064C071F0FB
:100C080065C072F066C073F067C074F00201E3510A
:100C180060EC36F00201E25149EC2EF00201E3519A
:100C280049EC2EF0A0C0A2F0A1C0A3F00201DB5154
:100C38000001A46F0201DC510001A56FA66BA76B30
:100C4800D60EA403F3CFA8F0F4CFA9F0AA6BAB6B30
:100C5800A503F350A927F450AA23000EAB230B0ECB
:100C6800A403F350A927F450AA23000EAB23D60EF1
:100C7800A603F350AA27F450AB230B0EA503F35099
:100C8800AA27F450AB23000EA403F350AA27F4506C
:100C9800AB23D60EA703F350AB270B0EA603F350D6
:100CA800AB27000EA503F350AB27000EA403F350A7
:100CB800AB27FF0EA825AC6FFF0EA921AD6FFF0E65
:100CC800AA21AE6FFF0EAB21AF6FAC51A203F3CFD9
:100CD800B0F0F4CFB1F0B26BB36BA303F350B1270C
:100CE800F450B223000EB323AD51A203F350B12741
:100CF800F450B223000EB323AD51A303F350B2272F
:100D0800F450B323AE51A203F350B227F450B323E7
:100D1800AE51A303F350B327AF51A203F350B32747
:100D2800D1510E0D080EF324D96E040EF420DA6E9C
:100D3800B0C0DEFFB1C0DEFFB2C0DEFFB3C0DEFF71
:100D48001DD17D0E1725F66EF76AFF0EF722F86A99
:100D5800000EF8220800F5CFA2F094510001A22558
:100D6800A36F000EA2BFFF0E020195210001A46F20
:100D7800A56BA66B0C0ED890A337A437A537A6375A
:100D8800E82EF9D7A3C064F0A4C065F0A5C066F04A
:100D9800A6C067F07D0E686F696B6A6B6B6B0BECB6
:100DA80030F064C071F065C072F066C073F067C05F
:100DB80074F00201E45160EC36F07D0E02011C254E
:100DC800F66EF76AFF0EF722F86A000EF82208009E
:100DD800F5CFA2F096510001A225A36F000EA2BF85
:100DE800FF0E020197210001A46FA56BA66B0C0EE4
:100DF800D890A337A437A537A637E82EF9D7A3C0CC
:100E080064F0A4C065F0A5C066F0A6C067F07D0ECA
:100E1800686F696B6A6B6B6B0BEC30F064C071F0D8
:100E280065C072F066C073F067C074F00201E551E6
:100E380060EC36F00201E45149EC2EF00201125147
:100E480003E1E55149EC2EF0A0C0A2F0A1C0A3F047
:100E580022EEDBF0DECFA4F0DDCFA5F00001D1510A
:100E68000E0D060EF324D96E040EF420DA6EDECFD2
:100E7800A6F0DDCFA7F0A651A86FA751A96FAA6B5E
:100E8800AB6BA829AC6F000EA921AD6F000EAA218B
:100E9800AE6F000EAB21AF6FAC51A403F3CFB0F02F
:100EA800F4CFB1F0B26BB36BA503F350B127F45094
:100EB800B223000EB323AD51A403F350B127F4506D
:100EC800B223000EB323AD51A503F350B227F4505B
:100ED800B323AE51A403F350B227F450B323AE5159
:100EE800A503F350B327AF51A403F350B327FF0E64
:100EF800B025B46FFF0EB121B56FFF0EB221B66FEA
:100F0800FF0EB321B76FB451A203F3CFB8F0F4CFFB
:100F1800B9F0BA6BBB6BA303F350B927F450BA23EB
:100F2800000EBB23B551A203F350B927F450BA23DE
:100F3800000EBB23B551A303F350BA27F450BB23CB
:100F4800B651A203F350BA27F450BB23B651A303FA
:100F5800F350BB27B751A203F350BB27D1510E0D55
:100F6800080EF324D96E040EF420DA6EB8C0DEFF42
:100F7800B9C0DEFFBAC0DEFFBBC0DEFF0201E95127
:100F8800EDEC39F0000901E1C8D00201E95157EC54
:100F98003AF00201E95181EC36F08DC0C9F08EC0FB
:100FA800CAF08FC0CBF090C0CCF0CC5107E11F0E37
:100FB800C95DAC0ECA59DF0ECB594AE3C9C0A2F0CD
:100FC800CAC0A3F0CBC0A4F0CCC0A5F00D0E05D0CC
:100FD800D890A533A433A333A233E82EF9D77D0ED6
:100FE800A203F3CFA6F0F4CFA7F0A86BA96BA303D5
:100FF800F350A727F450A823000EA923A203F35007
:10100800A727F450A823000EA9237D0EA403F350AC
:10101800A827F450A923000EA303F350A827F450DF
:10102800A923000EA203F350A827F450A9237D0E8C
:10103800A503F350A927000EA403F350A927000E17
:10104800A303F350A927000EA203F350A92749D000
:10105800C9C0A2F0CAC0A3F0CBC0A4F0CCC0A5F010
:101068007D0EA203F3CFA6F0F4CFA7F0A86BA96B6F
:10107800A303F350A727F450A823000EA923A20323
:10108800F350A727F450A823000EA9237D0EA4032C
:10109800F350A827F450A923000EA303F350A82760
:1010A800F450A923000EA203F350A827F450A92353
:1010B8007D0EA503F350A927000EA403F350A9271A
:1010C800000EA303F350A927000EA203F350A9278B
:1010D8000D0E05D0D890A933A833A733A633E82E30
:1010E800F9D7A6C0BCF0A7C0BDF0A8C0BEF0A9C083
:1010F800BFF0BC510201C85D0001C56FBD510201BE
:10110800C9590001C66FBE510201CA590001C76F13
:10111800BF510201CB590001C86FD16BD1510E0DDF
:10112800040EF324D96E040EF420DA6EDE0401E016
:101138008ED0D1510E0D080EF324D96E040EF42072
:10114800DA6EDE50DE10DE10DE1001E180D0D15103
:101158000201DA194BE00001D1510E0D080EF324FB
:10116800D96E040EF420DA6EDE50C55DDE50C65925
:10117800DE50C759DE50C8592DE2D1510E0D080E68
:10118800F324D96E040EF420DA6EDECFA2F0DECF9F
:10119800A3F0DECFA4F0DECFA5F0C551A25DA66F07
:1011A800C651A359A76FC751A459A86FC851A559CB
:1011B800A96FD1510E0D080EF324D96E040EF42038
:1011C800DA6EA6C0DEFFA7C0DEFFA8C0DEFFA9C09A
:1011D800DEFF0CD0D1510E0D080EF324D96E040E8B
:1011E800F420DA6EDE6ADE6ADE6ADD6A0001D15159
:1011F8000E0D080EF324D96E040EF420DA6EDE50BC
:10120800CD5DDE50CE59DE50CF59DE50D0591FE3A8
:10121800D1510E0D080EF324D96E040EF420DA6EA7
:10122800DE50DE10DE10DE1012E0D1510E0D080E79
:10123800F324D96E040EF420DA6EDECFCDF0DECFC3
:10124800CEF0DECFCFF0DECFD0F0010EC46FD12BC1
:101258000F0ED16563D7C4055FE1CDC0C8F2CEC01B
:10126800C9F2CFC0CAF2D0C0CBF2D05106E1CD2925
:10127800FF0ECE590F0ECF5918E3CDC064F0CEC083
:1012880065F0CFC066F0D0C067F07D0E686F696BFF
:101298006A6B6B6B0BEC30F00C0ED89064376537CB
:1012A80066376737E82EF9D71FD0CDC0A2F0CEC079
:1012B800A3F0CFC0A4F0D0C0A5F00C0ED890A237F0
:1012C800A337A437A537E82EF9D7A2C064F0A3C086
:1012D80065F0A4C066F0A5C067F07D0E686F696B05
:1012E8006A6B6B6B0BEC30F064C0C0F065C0C1F08A
:1012F80066C0C2F067C0C3F0C0C071F0C1C072F070
:10130800C2C073F0C3C074F00201E95160EC36F05A
:101318000201E95149EC2EF0020E02011219D8A47B
:1013280012000251F00B0809026F84EF32F03BEC17
:101338003CF00001A26FA2A90ED0646B656B666BCE
:10134800020E676F0500FA6EE851FD6EE951FE6EF8
:10135800FF6AFA501200E851E911D8B41200646B20
:10136800656B666B030E676F0500FA6EE851FD6EDC
:10137800E951FE6EFF6AFA50120096C169F0000E3C
:101388006A6F5FEC28F07EC171F07FC172F080C196
:1013980073F081C174F0F1EC27F00101995133EC3D
:1013A80029F00101960501E0B6D18CC166F0390E2D
:1013B8002AEC3AF0A0C17FF0010E00017F1701016D
:1013C800D8909F350001806F01019839F00B00011A
:1013D80080117F11666F1D0E2AEC3AF07EC07FF0F7
:1013E800030E00017F179AC180F0010E8017D89074
:1013F8008037D890803701019739F00B00018011B0
:101408007F11666F1E0E2AEC3AF001019C519D1166
:1014180060E09CC182F09DC183F00001846B856B04
:1014280042D082C064F083C065F084C066F085C095
:1014380067F07D0E0001686F696B6A6B6B6B8DECF2
:101448002EF022D082C064F083C065F084C066F0BC
:1014580085C067F0FA0E0001686F696B6A6B6B6B89
:101468008DEC2EF011D082C064F083C065F084C08A
:1014780066F085C067F0F40E0001686F010E696FB1
:101488006A6B6B6B8DEC2EF064C082F065C083F0E4
:1014980066C084F067C085F00FD00001826B836B53
:1014A800846B856B09D001019851070ABAE00F0ACD
:1014B800C9E0010AD8E0F1D70101972900017F6F3F
:1014C80005D0D89085338433833382337F2FF9D77F
:1014D80005D00001826B836B846B856B82C066F0DC
:1014E800240E2AEC3AF07DC066F01F0E2AEC3AF082
:1014F800260E53EC39F0866F0C0E0101971906E1A0
:10150800070E981909E0080E981906E00B0E9719AE
:1015180006E1070E981903E10001868702D0000151
:101528008697868586C066F0260E2AEC3AF0310E3C
:1015380053EC39F0866FF80E8617030E861386C0B3
:1015480066F0310E2AEC3AF00A0E0001666F370E8B
:101558002AEC3AF0120E0101AF1929E1070E981989
:1015680003E0080E981915E1310E53EC39F0866F37
:10157800869F86C066F0310E2AEC3AF0400E0001D4
:10158800666F2F0E2AEC3AF00001666B300E2AECDB
:101598003AF0090E010198190AE1310E53EC39F0BD
:1015A800866F868F86C066F0310E2AEC3AF0330ECD
:1015B80053EC39F0866F869D86819EC17FF0010EBF
:1015C8007F17060E806FD8907F37802FFCD77F510A
:1015D800861386C066F0330E2AEC3AF09EC17FF07F
:1015E800010E00017F17D8907F37D8907F35FF0A0A
:1015F8001D0B866F86C066F03B0E2AEC3AF001019F
:101608008B510001666F200E2AEC3AF08AC166F011
:10161800210E2AEC3AF00001666B0D0E2AEC3AF026
:101628000001666B0E0E2AEC3AF00001666B0F0E95
:101638002AEC3AF0120E0101AF1968E1090E981967
:101648001EE1800E7E5D130E7F59610E8059330EA8
:10165800815915E37E05F70E7F59CB0E80593C0E54
:1016680081590DE2020E0001666F360E2AEC3AF03F
:10167800640E0001666F3A0E2AEC3AF028D0090E83
:1016880098191FE1800E7E5D1A0E7F59700E8059E1
:10169800180E815916E3410E7E5DDD0E7F594A0E04
:1016A80080591F0E81590DE2020E0001666F360E39
:1016B8002AEC3AF07F0E0001666F3A0E2AEC3AF0F7
:1016C80006D0030E0001666F360E2AEC3AF0090EBA
:1016D800010198190FE19E050DE1650E0001666F85
:1016E8003A0E2AEC3AF0190E0001666F3B0E2AEC0E
:1016F8003AF00CD0650E0001666F3A0E2AEC3AF00B
:101708001D0E0001666F3B0E2AEC3AF00001666977
:10171800120E2AEF3AF082C171F083C172F084C1CF
:1017280073F085C174F052EC32F086C171F087C154
:1017380072F088C173F089C174F0B5EC32F0010120
:101748008B510001666F250E2AEC3AF08AC166F0CB
:10175800260E2AEC3AF00A0E53EC39F0866F9F0EEB
:1017680086170101B139E846E00B0001861386C0EF
:1017780066F00A0E2AEC3AF0C80E0001866F0101E5
:101788009A5102E00001868986C066F0300E2AEC84
:101798003AF00001816B0ED08D0E8125D96EDA6A80
:1017A800010EDA22DF50666F8151280F2AEC3AF0D9
:1017B8000001812B010195510001815DEDE30101DB
:1017C800955108E0950510090001666F270E2AEC6F
:1017D8003AF005D00001666B270E2AEC3AF00001BA
:1017E80066693E0E2AEC3AF0000166693F0E2AEF60
:1017F8003AF00101656B646B626B606B616BBCC036
:1018080094F0BDC095F0100E0001966F010E976F11
:10181800000E986F010E996F32EC24F0C251C36F1D
:10182800C46B0F0EC327000EC423040EC56FC43546
:10183800C433C333C52FFBD7C3510101636F635151
:1018480004E1010E636F626B0AD0C2C0C3F00F0ED1
:101858000001C317010ED8A4000E0101626F6205D2
:1018680041E1646B6351100DF350F00F656F1ED0AA
:10187800200E01016425D96EDA6A010EDA22100EF3
:101888006425E96EEA6A010EEA22EF500001C36F8F
:10189800010165510001C025E96E000EC121EA6E03
:1018A800EF50C319DF6E0101642B652B63510001F2
:1018B800C36FC46BC33BC43BF00EC417C3510F0BBB
:1018C800C413F00EC317010165510001C56FC66B43
:1018D800C351C55DC651800AC76FC451800AC75934
:1018E80063E2C6D70001C251C025C36F000EC121F3
:1018F800C46FC2510F0BC35D0101606F0001C45179
:10190800D8A0C4050101616F656B0001C2510F0BBE
:10191800010165610FD065516025D96E000E612106
:10192800DA6E300E6525E96EEA6A010EEA22DFCF2B
:10193800EFFF16D00001C2510F0B0101651909E133
:10194800300E6525D96EDA6A010EDA22800EDF6E56
:1019580007D0300E6525D96EDA6A010EDA22DF6A01
:10196800652B0F0E6565D1D7656B200E6525D96E81
:10197800DA6A010EDA22000E6525E96EEA6A010EBE
:10198800EA22EF500001C36F300E01016525E96EB0
:10199800EA6A010EEA22EF500001C319DF6E010165
:1019A800652B0F0E6565E1D7500E0001646F010EBF
:1019B800656F676B666B696B100E686FDCEC38F0EF
:1019C8000101656B51D00101646B400E6425D96E2D
:1019D800DA6A010EDA2265510001C36FC46BC33B9A
:1019E800C43BF00EC417C3510F0BC413F00EC3173A
:1019F800C0C0C5F0C1C0C6F0C351C527C451C62375
:101A0800010164510001C525E96E000EC621EA6E88
:101A1800EF50C76F500E01016425E96EEA6A010EA6
:101A2800EA22EF500001C719DF6E0101642B0F0E87
:101A38006465CBD7500E0001646F010E656F400ED0
:101A4800666F010E676F696B100E686FFFEC33F0FD
:101A5800500E806F010E816FBCC082F0BDC083F054
:101A680019EC39F00101652B0001C369C469010152
:101A780063510001C56FC66BC351C527C451C62346
:101A8800010165510001C76FC86BC551C75DC851D9
:101A9800800AC96FC651800AC95995E30101656B6F
:101AA800400E6525D96EDA6A010EDA22200E652508
:101AB800E96EEA6A010EEA22EF500001C36F500E88
:101AC80001016525E96EEA6A010EEA22EF5000017C
:101AD800C319DF6E0101652B0F0E6565E1D7400E56
:101AE8000001806F010E816FBCC082F0BDC083F021
:101AF80019EC39F0BEC064F0BFC065F0400E666FE7
:101B0800010E676F696B100E686FFFEF33F0665157
:101B1800D96EDA6ADF506F6F6E6B69D1675101E178
:101B28004BD16E51020DA80EF324D96E020EF4208B
:101B3800DA6EDE2801E140D1FE0E686F69696E51E8
:101B4800020DA80EF324D96E020EF420DA6EDF50CF
:101B58006A6F6B6B68516A2769516B23940E6A250B
:101B6800F66EFF0E6B21F76EF86A000EF822080079
:101B7800F5506FC06CF06D6B6C27000E6D236651CD
:101B8800D96EDA6ADF506C5F000E6D5B6DBF14D1E1
:101B98006D5105E1100E6C5D01E32FD10DD12DD1F2
:101BA8006F516425D96E000E6521DA6E030EDF6E63
:101BB8006F2B6F516425D96E000E6521DA6EDF6ACE
:101BC8006E51020DA90EF324D96E020EF420DA6EBE
:101BD800DFA009D000016F516425D96E000E652180
:101BE800DA6E000EDB8000016E51020DA90EF3249F
:101BF800D96E020EF420DA6EDFA208D06F51642588
:101C0800D96E000E6521DA6E000EDB8200016E517E
:101C1800020DA90EF324D96E020EF420DA6EDFA4A9
:101C280009D000016F516425D96E000E6521DA6E66
:101C3800000EDB8400016F2BD9D06F516425D96E5B
:101C4800000E6521DA6E050EDF6E6F2B6F5164256D
:101C5800D96E000E6521DA6EDF6A6E51020DA90E8B
:101C6800F324D96E020EF420DA6EDFA609D0000143
:101C78006F516425D96E000E6521DA6E000EDB8087
:101C880000016E51020DA90EF324D96E020EF42044
:101C9800DA6EDFA808D06F516425D96E000E652171
:101CA800DA6E000EDB8200016E51020DA90EF324DC
:101CB800D96E020EF420DA6EDFAABCD7B2D76F5104
:101CC8006425D96E000E6521DA6E060EDF6E6F2B65
:101CD8006F516425D96E000E6521DA6EE0C2DFFF10
:101CE8006F2B38EC3CF0800AA00F05E338EC3CF091
:101CF800800A600F09E300016F516425D96E000E58
:101D08006521DA6E200E0AD000016F516425D96E64
:101D1800000E6521DA6E38EC3CF03F0BDF6E8AD797
:101D28006F516425D96E000E6521DA6E070EDF6EDD
:101D38006F2B6F516425D96E000E6521DA6EDF6A4C
:101D48006E51020DA90EF324D96E020EF420DA6E3C
:101D5800DFAE09D000016F516425D96E000E6521F0
:101D6800DA6E000EDB8000016E51020DA90EF3241D
:101D7800D96E020EF420DA6EDFAC5CD76F516425A1
:101D8800D96E000E6521DA6E000EDB8253D7020190
:101D9800DD69DE6B00016E51020DA80EF324D96EC9
:101DA800020EF420DA6E6F516425E96E000E65218B
:101DB800EA6EDFCFEFFF3ED76E51020DA80EF32477
:101DC800D96E020EF420DA6EDF50020AE0E0010A52
:101DD80001E1E6D6070ADEE0010A01E12ED7030A8F
:101DE80001E16DD7010A9CE00F0AD4E06E2B0201D5
:101DF800A75100016E5D01E291D66651D96EDA6A8B
:101E08006FC0DFFF1200D16F100E0001D56FD46BC9
:101E1800D20E646F656B676B666B696B010E686FDA
:101E2800DCEC38F0E00E646F040E656F676B666B70
:101E3800010E696F0F0E686FDCEC38F0B40E646F3A
:101E4800010E656F676B666B696B100E686FDCEC73
:101E580038F0D10507E1D2511F0B8009D26F02017A
:101E6800008104D0D2511F0B4009D26FFC0E000133
:101E7800D217E30ED217E00ED525D96EDA6A040E12
:101E8800DA22D2C0DFFFD52BE00ED525646F656B53
:101E9800040E65231E0E666F020E676F696B040ED3
:101EA800686FFFEC33F0040ED527D36B020102AD47
:101EB80030D00001D38F0201DF51EB5D29E2000130
:101EC800D38D02010089D04BD12BA251D019D11149
:101ED80002E1EE6B1AD0A2510001CF6FD06B020164
:101EE800D0510001CF5D0201D1510001D0590EE25D
:101EF8000201EE2BEE51A35D0CE2EE6B7BEC2CF0B5
:101F0800000907E10201D06BD16B0001D39D0201EA
:101F18000099020100A304D00001D38B02010093B1
:101F28000001D3990201A75104E00001CD51CE115F
:101F380004E1F00E0001D31707D05CEC2AF0CF6F54
:101F4800D319F00BCF19D36FE00ED525D96EDA6A05
:101F5800040EDA22D3C0DFFFD52BE00ED525646F3F
:101F6800656B040E6523060E666F020E676F696B5C
:101F7800020E686FFFEC33F0020ED5270201A7515D
:101F88000EE00001CD51CE110AE0E00E646F040EA0
:101F9800656FD50E666F010E676F8BEC0DF0E00E66
:101FA8000001D525D96EDA6A040EDA22CAC0DFFF2D
:101FB800D52BCD51CE112EE0E00ED525646F656B83
:101FC800040E6523CBC066F0CCC067F0CDC068F0C6
:101FD800CEC069F0FFEC33F0CBC094F0CCC095F0E4
:101FE800CDC096F0976B06C298F007C299F008C268
:101FF8009AF009C29BF0320E9C6F020E9D6FD5C0FD
:102008009EF0E00E9F6F040EA06FA16B9BEC20F07A
:10201800CD512AD00201A75128E0EF0E0001646FCC
:10202800050E656FD40E666F676B8BEC0DF0EF0EC7
:10203800946F050E956FD4C096F0976B06C298F012
:1020480007C299F008C29AF009C29BF0220E9C6F51
:10205800020E9D6FD5C09EF0E00E9F6F040EA06F1C
:10206800A16B9BEC20F0D451D52706C26EF007C2B5
:102078006FF008C270F009C271F00001D551F00F7D
:10208800726F490E736F000E746B22EC2CF0E00E29
:10209800646F040E656FB40E666F010E676F696B2F
:1020A800100E686FFFEC33F0220EBC6F020EBD6F8E
:1020B800B40EBE6F010EBF6FE00EC06F040EC16F8D
:1020C800D5C0C2F0FDEC0BF0E00ED525646F656B52
:1020D800040E6523B40E666F010E676F696B040EFC
:1020E800686FFFEC33F0040ED527F00ED5250201FA
:1020F800D46FD56BFF0ED523FF0C0A0EE126000E18
:10210800E2224E684F6850685168FA0E4EC0E3FFED
:10211800FB0E4FC0E3FFFC0E50C0E3FFFD0E51C0A5
:10212800E3FFFF0EE36AFE0EE36AFE0EE3500E0DB8
:10213800040EF324D96E040EF420DA6EDE0401E0F6
:10214800AAD0FE0EE3500E0D080EF324D96E040E2D
:10215800F420DA6EDE50DE10DE10DE1001E19BD0D6
:10216800FE0EE3500E0D080EF324D96E040EF42073
:10217800DA6EDE500201C85DDE50C959DE50CA5918
:10218800DE50CB592FE2FE0EE3500E0D080EF3245D
:10219800D96E040EF420DA6EDECF4EF0DECF4FF0AB
:1021A800DECF50F0DECF51F0C8514E5C4A6EC951B7
:1021B8004F584B6ECA5150584C6ECB5151584D6EBA
:1021C800FE0EE3500E0D080EF324D96E040EF42013
:1021D800DA6E4AC0DEFF4BC0DEFF4CC0DEFF4DC0EA
:1021E800DEFF0DD0FE0EE3500E0D080EF324D96E5F
:1021F800040EF420DA6EDE6ADE6ADE6ADD6AFE0E3E
:10220800E3500E0D080EF324D96E040EF420DA6E96
:10221800FA0EE3CF47F0DE50475CFB0EE3CF47F002
:10222800DE504758FC0EE3CF47F0DE504758FD0E0E
:10223800E3CF47F0DE5047582EE3FE0EE3500E0D75
:10224800080EF324D96E040EF420DA6EDE50DE1088
:10225800DE10DE1020E0FE0EE3500E0D080EF32413
:10226800D96E040EF420DA6EDECF4EF0DECF4FF0DA
:10227800DECF50F0DECF51F0FA0E4EC0E3FFFB0E7A
:102288004FC0E3FFFC0E50C0E3FFFD0E51C0E3FF5B
:10229800FF0EE36AE32AFE0EE32AE3CF47F00F0EB0
:1022A800476443D7FF0EE30401E096D0E150FA0FEC
:1022B800D96EE250DA6EFF0EDA22DECFC8F2DECF38
:1022C800C9F2DECFCAF2DECFCBF2FD0EE3500DE14C
:1022D800FA0EE328FB0EE3CF47F0FF0E475AFC0E39
:1022E800E3CF47F00F0E475A28E3E150FA0FD96EB3
:1022F800E250DA6EFF0EDA22DECF64F0DECF65F050
:10230800DECF66F0DECF67F07D0E0001686F696B87
:102318006A6B6B6B0BEC30F064C04EF065C04FF02D
:1023280066C050F067C051F00C0ED8904E364F364C
:1023380050365136E82EF9D72CD0FA0EE3CF4EF0AE
:10234800FB0EE3CF4FF0FC0EE3CF50F0FD0EE3CFD2
:1023580051F00C0ED8904E364F3650365136E82E86
:10236800F9D74EC064F04FC065F050C066F051C058
:1023780067F07D0E0001686F696B6A6B6B6B0BEC25
:1023880030F064C04EF065C04FF066C050F067C0D2
:1023980051F0F60E4EC0E3FFF70E4FC0E3FFF80E04
:1023A80050C0E3FFF90E51C0E3FFE150F60FD96EBC
:1023B800E250DA6EFF0EDA22DECF71F0DECF72F075
:1023C800DECF73F0DECF74F00201E95160EC36F035
:1023D8000201E95149EC2EF0F50EE126FF0EE2224A
:1023E800FF0C0A0E446E010EEE6F7F6B6C517F2559
:1023F800D96EDA6ADF506D6F7F516A25D96E000E8B
:102408006B21DA6E6D51DF1A7F2B0F0E7F65EED7C9
:102418007F6B7F516A25D96E000E6B21DA6EDF5013
:102428006D6F6E6B6D0E6D25F66EFE0E6E21F76E7E
:10243800F86A000EF8227F516A25D96E000E6B21CA
:10244800DA6E0800F5CFDFFF7F2B0F0E7F65E1D72F
:102458006AC064F06BC065F08FEC1EF0440401E1C3
:1024680011D17F6B7F516A256D6F000E6B216E6FE6
:102478006D29D96E000E6E21DA6EDF506F6F7F51B5
:102488006A25D96E000E6B21DA6EDF506F197D6FE9
:102498007F516A256D6F000E6B216E6F030E6D25DF
:1024A800D96E000E6E21DA6EDF506F6F7F516A258C
:1024B800706F000E6B21716F020E7025D96E000EC1
:1024C8007121DA6EDF506F197E6F7D197B6F7F5136
:1024D8006A256D6F000E6B216E6F6D29D96E000E27
:1024E8006E21DA6EDF506F6F7F516A25706F000EB4
:1024F8006B21716F020E7025D96E000E7121DA6E94
:10250800DF506F197C6F7F0E7D650CD01B0E7DC070
:102518006DF06E6BD8906D376E376D19756F6E51A3
:10252800766F05D0D8907D35756F766B763775C028
:102538007DF07F0E7C650CD01B0E7CC06DF06E6B41
:10254800D8906D376E376D19776F6E51786F05D0EB
:10255800D8907C35776F786B783777C07CF07F0EB2
:102568007E650CD01B0E7EC06DF06E6BD8906D37FB
:102578006E376D19796F6E517A6F05D0D8907E35A8
:10258800796F7A6B7A3779C07EF07F516A25D96E78
:10259800000E6B21DA6E7F516A25E96E000E6B2101
:1025A800EA6EEF507B197D19DF6E7F516A256D6FDA
:1025B800000E6B216E6F6D29D96E000E6E21DA6EDA
:1025C8007F516A256F6F000E6B21706F6F29E96E5E
:1025D800000E7021EA6EEF507B197C19DF6E7F5177
:1025E8006A256D6F000E6B216E6F020E6D25D96E18
:1025F800000E6E21DA6E7F516A256F6F000E6B2117
:10260800706F020E6F25E96E000E7021EA6EEF50B2
:102618007B197E19DF6E7F516A256D6F000E6B2165
:102628006E6F030E6D25D96E000E6E21DA6E7F5126
:102638006A256F6F000E6B21706F020E6F25E96EB1
:10264800000E7021EA6EEF50716F7F516A25726F2C
:10265800000E6B21736F7229E96E000E7321EA6E0A
:10266800EF50746F7F516A25E96E000E6B21EA6E98
:10267800EF50741971197B19DF6E040E7F270F0E46
:102688007F65F0D66CC064F0B1EC14F07F6B6C51D0
:102698007F25D96EDA6ADF506D6F7F516A25D96E52
:1026A800000E6B21DA6E6D51DF1A7F2B0F0E7F65DE
:1026B800EED74406445001E0ABD612000001AB69E6
:1026C800AC69AD69AE69020103B134D102510F0B97
:1026D800030A0EE1125105E10251F00B0409026FE1
:1026E8001200020E1219D8A41200E66A9AEF29F015
:1026F80000B566EF39F002A9120000A14BD0D951FC
:10270800D75D34E30251F00B0609026FA0510001B6
:10271800A76F0201A1510001A86FA96BAA6B0C0E4B
:10272800D890A737A837A937AA37E82EF9D7A7C06E
:1027380064F0A8C065F0A9C066F0AAC067F07D0E75
:10274800686F696B6A6B6B6B0BEC30F064C071F08F
:1027580065C072F066C073F067C074F00201E8519A
:1027680060EC36F00201E85149EF2EF087EC3BF0BF
:102778000001E851E911D8B41200646B656B666B0F
:10278800676B0500FA6AE851FD6EE951FE6EFF6A53
:10279800FA501200D851D65D01E2B7D00251F00BC1
:1027A8000609026F010E17EC33F0000919E1F00E6B
:1027B800966F040E976FD4C298F0D3EC17F0965129
:1027C800971107E10201D82B0251F00B0109026FA2
:1027D800120080EC3BF00001E851E911CEE1120053
:1027E800AF6B5BD00001AF510E0D040EF324D96E10
:1027F800040EF420DA6EDE044EE1AF510E0D080E21
:10280800F324D96E040EF420DA6EDE50DE10DE10EA
:10281800DE1041E0AF510E0D080EF324D96E040E00
:10282800F420DA6EDE50AB5DDE50AC59DE50AD59A7
:10283800DE50AE5930E3AF510E0D050EF324D96EBC
:10284800040EF420DA6EDF500F0BA76FA7510201B8
:10285800DF5D21E30001AF510E0D050EF324D96EA3
:10286800040EF420DA6EDF380F0BA76F0201DF5178
:102878000001A75D10E3AF510E0D080EF324D96EC9
:10288800040EF420DA6EDECFABF0DECFACF0DECF94
:10289800ADF0DECFAEF00001AF2BAF510201ED5D20
:1028A800A1E2ABC0A7F0ACC0A8F0ADC0A9F0AEC023
:1028B800AAF00C0ED8900001A737A837A937AA3775
:1028C800E82EF8D7000EA725646F200EA821656FA3
:1028D800030EA921666F000EAA21676F7D0E686F2F
:1028E800696B6A6B6B6B0BEC30F064C071F065C0A0
:1028F80072F066C073F067C074F00201EA5160ECD0
:1029080036F00201EA5149EF2EF080EC3BF000016D
:10291800E851E911D8B41200646B656B666B010E5F
:10292800676F0500FA6EE851FD6EE951FE6EFF6AA9
:10293800FA5012000001E851E911D8B41200646B92
:10294800656B666B020E676F0500FA6EE851FD6EE7
:10295800E951FE6EFF6AFA5012006451D96EDA6AC4
:102968000D0ED926DF50656F666B6D0E6525F66E08
:10297800FE0E6621F76EF86A000EF8220800F5CF01
:1029880067F06451D96EDA6A6751DF1A6451D96EFB
:10299800DA6A0E0ED926DF50656F666B6D0E6525F7
:1029A800F66EFE0E6621F76EF86A000EF822080031
:1029B800F5CF67F06451D96EDA6AD92A6751DF1A00
:1029C8006451D96EDA6A0F0ED926DF50656F666BCF
:1029D8006D0E6525F66EFE0E6621F76EF86A000E1E
:1029E800F8220800F5CF67F06451D96EDA6A020E52
:1029F800D9266751DF1A6451D96EDA6A0C0ED926C6
:102A0800DF50656F666B6D0E6525F66EFE0E6621EE
:102A1800F76EF86A000EF8220800F5CF67F06451E7
:102A2800D96EDA6A030ED9266751DF1A6451D96E56
:102A3800DA6AEE51DF1A7F0EEE650CD01B0EEEC07F
:102A480065F0666BD890653766376519686F6651AB
:102A5800696F05D0D890EE35686F696B693768C0C3
:102A6800EEF06451D96EDA6ADF50656F6451D96E41
:102A7800DA6A040ED9266551DF1A6451D96EDA6A0A
:102A8800D92ADF50656F6451D96EDA6A050ED926E6
:102A98006551DF1A6451D96EDA6A020ED926DF5001
:102AA800656F6451D96EDA6A060ED9266551DF1A48
:102AB8006451D96EDA6A030ED926DF50656F645106
:102AC800D96EDA6A070ED9266551DF1A6451D96EB4
:102AD800DA6A040ED926DF50656F6451D96EDA6A56
:102AE800080ED9266551DF1A6451D96EDA6A050EC7
:102AF800D926DF50656F6451D96EDA6A090ED92676
:102B08006551DF1A6451D96EDA6A060ED926DF508C
:102B1800656F6451D96EDA6A0A0ED9266551DF1AD3
:102B28006451D96EDA6A070ED926DF50656F645191
:102B3800D96EDA6A0B0ED9266551DF1A6451D96E3F
:102B4800DA6A080ED926DF50656F6451D96EDA6AE1
:102B58000C0ED9266551DF1A6451D96EDA6A090E4E
:102B6800D926DF50656F6451D96EDA6A0D0ED92601
:102B78006551DF1A6451D96EDA6A0A0ED926DF5018
:102B8800656F6451D96EDA6A0E0ED9266551DF1A5F
:102B98006451D96EDA6A0B0ED926DF50656F64511D
:102BA800D96EDA6A0F0ED9266551DF1A12000101B3
:102BB800A1A506D0800E0001976F030E966F030C37
:102BC800A1C198F0030E0001981705E0800E976FD9
:102BD800040E966F040C9651971107E1000E7E6F54
:102BE800040E7D6FC1EC09F006D096C07DF097C049
:102BF8007EF0C1EC09F00101960511E1010E00011A
:102C0800666F220E2AEC3AF00001666B400E2AEC41
:102C18003AF00001666B410E2AEC3AF014D0B2C1CA
:102C280066F0120E2AEC3AF0B3C166F0130E2AECE5
:102C38003AF00001666B400E2AEC3AF00001666B30
:102C4800410E2AEC3AF00101A183E70EA117000119
:102C58009651971108E196C169F0000E6A6F050E4A
:102C68005FEC28F041D00101960509E1010E000151
:102C7800696F000E6A6F060E5FEC28F035D0000E03
:102C88000001696F6A6F050E5FEC28F0000196512C
:102C9800986F9751996F9A6B9B6B0C0ED8909837D9
:102CA80099379A379B37E82EF9D798C064F099C0BE
:102CB80065F09AC066F09BC067F07D0E686F696B1F
:102CC8006A6B6B6B0BEC30F064C071F065C072F02E
:102CD80066C073F067C074F00101A65160EC36F06D
:102CE8000101A65149EC2EF00101A851A911AA1120
:102CF800AB1159E0AB5106E1A829FF0EA9590F0EF7
:102D0800AA5919E3A8C164F0A9C165F0AAC166F07F
:102D1800ABC167F07D0E0001686F696B6A6B6B6B06
:102D28000BEC30F00C0ED890643765376637673790
:102D3800E82EF9D720D0A8C198F0A9C199F0AAC166
:102D48009AF0ABC19BF00C0ED890000198379937D8
:102D58009A379B37E82EF8D798C064F099C065F089
:102D68009AC066F09BC067F07D0E686F696B6A6BEE
:102D78006B6B0BEC30F064C09CF065C09DF066C0D6
:102D88009EF067C09FF09CC071F09DC072F09EC01D
:102D980073F09FC074F00101A75160EC36F0010197
:102DA800A75149EC2EF00001966B976B12007F6BD0
:102DB8007AC080F07BC081F0DED00201A751020DFD
:102DC800A90EF324D96E020EF420DA6EDF90A75113
:102DD800020DA90EF324D96E020EF420DA6EDF92EA
:102DE800A751020DA90EF324D96E020EF420DA6E53
:102DF800DF94A751020DA90EF324D96E020EF42018
:102E0800DA6EDF96A751020DA90EF324D96E020ED1
:102E1800F420DA6EDF98A751020DA90EF324D96EBB
:102E2800020EF420DA6EDF9AA751020DA90EF324E0
:102E3800D96E020EF420DA6EDF9CA751020DA90E9E
:102E4800F324D96E020EF420DA6EDF9E80C0D9FF1B
:102E580081C0DAFFA751020DA80EF324E96E020E15
:102E6800F420EA6EDFCFEFFF60D080C064F081C04D
:102E780065F00FEC38F064C080F065C081F00201A5
:102E8800A751020DA80EF324D96E020EF420DA6EB3
:102E9800DF6862D080C071F081C072F08FEC1AF0E8
:102EA80071C080F072C081F057D080C064F081C0DA
:102EB80065F0A6EC34F064C080F065C081F04CD0B9
:102EC80080C070F081C071F045EC21F070C080F0D6
:102ED80071C081F041D080C064F081C065F0EEEC33
:102EE8003BF064C080F065C081F036D080C070F0DF
:102EF80081C071F0AEEC19F070C080F071C081F043
:102F08002BD080C069F081C06AF078EC39F069C0D4
:102F180080F06AC081F020D0010E7F6F7C517A2545
:102F2800806F000E7B21816FAAD780C0D9FF81C036
:102F3800DAFF0001804B812BDF50020A96E0010A7C
:102F4800A9E0070AB2E0010ABBE0030AC4E0010AEB
:102F5800CDE00F0AD6E0E0D70201A751020DA80E76
:102F6800F324D96E020EF420DA6EDE2804E0100E87
:102F7800A76101D0A72B00017C517A257D6F000E37
:102F88007B217E6F7D51805D7E51815903E27F51A7
:102F980001E113D780C07AF081C07BF012000101F3
:102FA800A1A506D0800E0001976F030E966F030C43
:102FB800A1C199F0030E0001991705E0800E976FE3
:102FC800040E966F040C0101965109E1400E0001B0
:102FD800986505D0800E976F020E966F020C01015E
:102FE800A55157EC3AF0000E7E6F040E7D6FC1ECD0
:102FF80009F00101960523E198C066F0220E2AEC3B
:103008003AF00A0E53EC39F0A56FF00EA517A58714
:10301800A5C066F00A0E2AEC3AF0400E0001666F71
:103028002AEC3AF00001666B410E2AEC3AF096C1A0
:1030380069F0010E00016A6F5FEC28F00AD0000108
:10304800666B400E2AEC3AF00001666B410E2AECE2
:103058003AF00101965105E198C066F0000E2AEC9D
:103068003AF05FEC3CF0800E07EC3CF00001A66BF8
:103078000BD0A6519625D96E000E9721DA6EDF5037
:1030880007EC3CF00001A62B9851A65DF2E35DEC3D
:103098003CF00101A181E70EA11796C169F0000E6D
:1030A80000016A6F030E5FEC28F00001716B726B10
:1030B8000A0E736F746B0101A55160EC36F00101C3
:1030C800A55149EC2EF00101A851A911AA11AB1183
:1030D80059E0AB5106E1A829FF0EA9590F0EAA59CC
:1030E80019E3A8C164F0A9C165F0AAC166F0ABC133
:1030F80067F07D0E0001686F696B6A6B6B6B0BEC98
:1031080030F00C0ED8906437653766376737E82E8D
:10311800F9D720D0A8C199F0A9C19AF0AAC19BF00B
:10312800ABC19CF00C0ED890000199379A379B37A9
:103138009C37E82EF8D799C064F09AC065F09BC018
:1031480066F09CC067F07D0E686F696B6A6B6B6B8D
:103158000BEC30F064C0A1F065C0A2F066C0A3F02B
:1031680067C0A4F0A1C071F0A2C072F0A3C073F050
:10317800A4C074F00101A75160EC36F00101A75119
:1031880049EC2EF00001966B976B12000001746FEA
:10319800210E7419D8A41200030E796F7A6B756B1F
:1031A800766B776B786B750E646F656B7A51030D70
:1031B80070C072F071C073F0F3507227F45073232B
:1031C8000D0E7227000E73237251666F676B696B61
:1031D800030E686FFFEC33F075C064F076C065F0DD
:1031E80077C066F078C067F0640E686F696B6A6BC9
:1031F8006B6B8DEC2EF064C075F065C076F066C020
:1032080077F067C078F0755176117711781101E180
:1032180094D075C064F076C065F077C066F078C069
:1032280067F0A5EC33F0000901E08CD07A510E0D5F
:10323800000E726F040E736FF3507227F4507323ED
:1032480079510E0DF3507225D96EF4507321DA6E50
:1032580075C0DEFF76C0DEFF77C0DEFF78C0DEFF18
:103268007A510E0D000E726F040E736F050E7227E1
:10327800000E7323F3507227F450732379510E0D07
:10328800F3507225D96EF4507321DA6EDF500F0BAC
:103298005009DF6E00017A510E0D000E726F040E98
:1032A800736F050E7227000E7323F3507227F450C4
:1032B800732379510E0DF3507225D96EF450732192
:1032C800DA6EF00EDF167A510E0D000E726F040ED4
:1032D800736F060E7227000E7323F3507227F45093
:1032E800732379510E0DF3507225D96EF450732162
:1032F800DA6EE70EDE6E030EDD6E7A510E0D000EED
:10330800726F040E736F0D0E7227000E7323F35045
:103318007227F450732379510E0DF3507225D96E2C
:10332800F4507321DA6EDF68010E686F7A517925DF
:1033380054EC37F00201038705D0686B7A51792580
:1033480054EC37F000017A2B040E7A6528D7020175
:103358000387040C70C0D9FF71C0DAFFDF50776FA4
:10336800704B712B70C0D9FF71C0DAFFFF0EDE14ED
:10337800736FFF0EDE14746FFF0EDE14756F000E90
:10338800DE14766F73C064F074C065F075C066F0C3
:1033980076C067F0640E686F696B6A6B6B6B8DEC57
:1033A8002EF064C073F065C074F066C075F067C035
:1033B80076F0030E7027000E712370C0D9FF71C01C
:1033C800DAFFDF50726F704B712B646B77510CEC26
:1033D8003AF000092BE173C064F074C065F075C061
:1033E80066F076C067F0A5EC33F0000905E073518C
:1033F8007411751176110AE10201A751020DA90E87
:10340800F324D96E020EF420DA6EDF8E00017251B9
:10341800C2EC37F000090AE10201A751020DA90E1A
:10342800F324D96E020EF420DA6EDF8C0201A75164
:10343800020DA90EF324D96E020EF420DA6EDFAE67
:1034480065D0A751020DA90EF324D96E020EF420FF
:10345800DA6EDFAC5BD0100EDA6129D0000173514F
:103468007411751176111EE073C064F074C065F0B4
:1034780075C066F076C067F0775137EC37F072C0E8
:1034880064F07751B3EC24F0010E0001656F2E0E45
:10349800646F7751F6EC37F0010E646F7751AFEC3B
:1034A80023F032D0686B775154EC37F02DD00001FF
:1034B800735174117511761122E073C064F074C0F1
:1034C80065F075C066F076C067F07751100F37EC7D
:1034D80037F072C064F07751100FB3EC24F0010E8E
:1034E8000001656F2E0E646F7751100FF6EC37F000
:1034F800010E646F7751100FAFEC23F005D0686BA5
:103508007751100F54EC37F00201038770C070F048
:1035180071C071F0120071C0D9FF72C0DAFFDF50BC
:103528000F0B766F71C0D9FF72C0DAFFDF50736F6F
:1035380073390F0B796F714B722B71C0D9FF72C041
:10354800DAFFDECF74F0DDCF75F0020E7127000EC2
:10355800722371C077F072C078F0714B722B020140
:1035680002AD92D077C0D9FF78C0DAFF0001DF380A
:10357800070B1CEC3BF0000912E174C064F075C045
:1035880065F070EC37F000090AE10201A751020D5D
:10359800A90EF324D96E020EF420DA6EDF80000142
:1035A800795148EC3BF0000912E10201EB510001AE
:1035B800795D0DE379510201EC5D09E3A751020D34
:1035C800A90EF324D96E020EF420DA6EDF82000110
:1035D80076519BEC39F000090AE10201A751020D6E
:1035E800A90EF324D96E020EF420DA6EDF840201EC
:1035F800A751020DA90EF324D96E020EF420DA6E3B
:10360800DFA45DD0A751020DA90EF324D96E020ED6
:10361800F420DA6EDFA253D0A751020DA90EF324CD
:10362800D96E020EF420DA6EDFA049D074C06EF0B5
:1036380075C06FF077C0D9FF78C0DAFF0001DF38B6
:10364800070B706F33EC3BF0765119EC3CF002013C
:103658000389000179511DEC3CF077C0D9FF78C08F
:10366800DAFF0001DF500F0B03E10201D66B0AD02D
:1036780077C0D9FF78C0DAFFDF500F0B736F73057F
:103688000201D66F038B1BD0A751020DA90EF3249C
:10369800D96E020EF420DA6EDF90A751020DA90E42
:1036A800F324D96E020EF420DA6EDF92A751020DD0
:1036B800A90EF324D96E020EF420DA6EDF9471C0DD
:1036C80071F072C072F012009651986F9751996F0D
:1036D8009A6B9B6BE80E9803F3CF9CF0F4CF9DF0A8
:1036E8009E6B9F6B9903F3509D27F4509E23000E09
:1036F8009F23030E9803F3509D27F4509E23000E3A
:103708009F23E80E9A03F3509E27F4509F23030E3D
:103718009903F3509E27F4509F23000E9803F3500B
:103728009E27F4509F23E80E9B03F3509F27030E18
:103738009A03F3509F27000E9903F3509F27000E1A
:103748009803F3509F279CC0CCF29DC0CDF29EC039
:10375800CEF29FC0CFF29651971127E10201E751AF
:1037680057EC3AF0020103950001A46B18D0A4515C
:10377800020DA80EF324D96E020EF420DA6E020EA2
:10378800DE180BE1A451020DA80EF324D96E020E27
:10379800F420DA6EDF680201A7070001A42B0201FA
:1037A800A7510001A45DE3E312000201038502A909
:1037B8001200CF5106E1CC29FF0ECD590F0ECE597C
:1037C80019E3CCC264F0CDC265F0CEC266F0CFC2B8
:1037D80067F07D0E0001686F696B6A6B6B6B0BECB1
:1037E80030F00C0ED8906437653766376737E82EA7
:1037F800F9D720D0CCC298F0CDC299F0CEC29AF0B9
:10380800CFC29BF00C0ED8900001983799379A37A1
:103818009B37E82EF8D798C064F099C065F09AC035
:1038280066F09BC067F07D0E686F696B6A6B6B6BA7
:103838000BEC30F064C0A0F065C0A1F066C0A2F047
:1038480067C0A3F0A0C071F0A1C072F0A2C073F06D
:10385800A3C074F00201E75160EC36F00201E751B1
:1038680049EF2EF07FC07EF180C07FF181C080F1EA
:1038780082C081F1A80E0101826F610E836F846B93
:10388800856B500E866FC30E876F886B896B010E30
:10389800966F070E986F010E996F9F6FA06B8B6BD9
:1038A800080E8A6F0C0E976F010E9A6F9B6B9E6BBA
:1038B800C10E8D6F940E8E6FC10E8F6F030E956FB4
:1038C800340E8C6FA16BA26B7DC0A3F17EC0A4F1F6
:1038D8009C6B9D6B800EB06F980EA86F3A0EA96F07
:1038E800AA6BAB6B020EB16F0B0EB26F120EB36FF9
:1038F800AD6BAE6BAC5123E1ECEC30F00101A56F80
:10390800ECEC30F00101A66FECEC30F00101A76F90
:103918004E0E0001646F6F0E656F666B0101A65154
:1039280028EC38F03C0E646F6C0E656F666B010115
:10393800A75128EC38F0010E0101AC6F0BD0A5514E
:1039480057EC3AF00101A65157EC3AF00101A751A2
:1039580057EC3AF0DCEC37F0000E0001696F010E0D
:103968006A6F5FEC28F07EC171F07FC172F080C190
:1039780073F081C174F0F1EC27F0420E0001666F1C
:103988003B0E2AEC3AF03B0E53EC39F0836F83BBC5
:10399800FAD7230E666F0C0E2AEC3AF01E0E0001C1
:1039A800666F0D0E2AEC3AF0AA0E0001666F1F0E24
:1039B8002AEC3AF08F0E0001666F350E2AEC3AF0C9
:1039C80000016669320E2AEC3AF0400E0001666F7B
:1039D800310E2AEC3AF0010E0001696F6A6F000E91
:1039E8005FEC28F000016669230E2AEC3AF0420EDB
:1039F80053EC39F00101AF6F12003F0E53EC39F070
:103A0800DE6FDEA7120096C169F0000E6A6F5FECE8
:103A180028F00101A191A75157EC3AF00101A1B991
:103A28001200A55181EC36F0905107E11F0E8D5D13
:103A3800AC0E8E59DF0E8F5946E30101A55181EC7A
:103A480036F00D0E05D0D89090338F338E338D33EA
:103A5800E82EF9D77D0E8D03F3CFD2F0F4CFD3F053
:103A6800D46BD56B8E03F350D327F450D423000EB8
:103A7800D5238D03F350D327F450D423000ED52338
:103A88007D0E8F03F350D427F450D523000E8E03F8
:103A9800F350D427F450D523000E8D03F350D427C8
:103AA800F450D5237D0E9003F350D527000E8F03D5
:103AB800F350D527000E8E03F350D527000E8D0343
:103AC800F350D52745D00101A55181EC36F07D0E84
:103AD8008D03F3CFD2F0F4CFD3F0D46BD56B8E0334
:103AE800F350D327F450D423000ED5238D03F3507D
:103AF800D327F450D423000ED5237D0E8F03F35023
:103B0800D427F450D523000E8E03F350D427F45055
:103B1800D523000E8D03F350D427F450D5237D0E02
:103B28009003F350D527000E8F03F350D527000ECE
:103B38008E03F350D527000E8D03F350D5270D0EB5
:103B480005D0D890D533D433D333D233E82EF9D730
:103B5800D2C0DAF0D3C0DBF0D4C0DCF0D5C0DDF0E1
:103B6800DA512008D66F4E0EDB55D76F000EDC55A4
:103B7800D86F000EDD55D96F0101A55157EC3AF009
:103B8800D6C0A0F0D7C0A1F07DEF05F00101A75184
:103B980057EC3AF0080E666F120E2AEC3AF096C10E
:103BA80069F0000E00016A6F5FEC28F00101A19135
:103BB800A1B91200A55181EC36F0905107E11F0E12
:103BC8008D5DAC0E8E59DF0E8F5946E30101A5516C
:103BD80081EC36F00D0E05D0D89090338F338E33AC
:103BE8008D33E82EF9D77D0E8D03F3CFD2F0F4CFC5
:103BF800D3F0D46BD56B8E03F350D327F450D42372
:103C0800000ED5238D03F350D327F450D423000E90
:103C1800D5237D0E8F03F350D427F450D523000EFF
:103C28008E03F350D427F450D523000E8D03F350A0
:103C3800D427F450D5237D0E9003F350D527000EDA
:103C48008F03F350D527000E8E03F350D527000EAF
:103C58008D03F350D52745D00101A55181EC36F0ED
:103C68007D0E8D03F3CFD2F0F4CFD3F0D46BD56BA8
:103C78008E03F350D327F450D423000ED5238D039D
:103C8800F350D327F450D423000ED5237D0E8F0391
:103C9800F350D427F450D523000E8E03F350D427C5
:103CA800F450D523000E8D03F350D427F450D523B8
:103CB8007D0E9003F350D527000E8F03F350D527C0
:103CC800000E8E03F350D527000E8D03F350D52731
:103CD8000D0E05D0D890D533D433D333D233E82E54
:103CE800F9D7D2C0DAF0D3C0DBF0D4C0DCF0D5C04D
:103CF800DDF0DA512008D66F4E0EDB55D76F000E77
:103D0800DC55D86F000EDD55D96FD6C0A0F0D7C0EE
:103D1800A1F07DEF05F020EE01F06451D926655140
:103D2800DA22DF50666F20EE05F06451D92665511E
:103D3800DA2200EE01F06451E9266551EA22DFCF6C
:103D4800EFFF20EE09F06451D9266551DA2200EE22
:103D580005F06451E9266551EA22DFCFEFFF20EE36
:103D68000DF06451D9266551DA2200EE09F064514C
:103D7800E9266551EA22DFCFEFFF20EE0DF064510E
:103D8800D9266551DA2266C0DFFF20EE02F06451C1
:103D9800D9266551DA22DF50666F20EE0AF06451A9
:103DA800D9266551DA2200EE02F06451E926655100
:103DB800EA22DFCFEFFF20EE0AF06451D9266551E1
:103DC800DA2266C0DFFF20EE0EF06451D926655175
:103DD800DA22DF50666F20EE06F06451D92665516D
:103DE800DA2200EE0EF06451E9266551EA22DFCFAF
:103DF800EFFF20EE06F06451D9266551DA2266C03D
:103E0800DFFF20EE03F06451D9266551DA22DF5036
:103E1800666F20EE0FF06451D9266551DA2200EE64
:103E280003F06451E9266551EA22DFCFEFFF20EE67
:103E38000BF06451D9266551DA2200EE0FF0645177
:103E4800E9266551EA22DFCFEFFF20EE07F0645143
:103E5800D9266551DA2200EE0BF06451E926655146
:103E6800EA22DFCFEFFF20EE07F06451D926655133
:103E7800DA2266C0DFFF12000001A56F0201F0051B
:103E880002E1F4EC34F0340E0201F46FF45102EC68
:103E98003CF00201026B036B046B056BDD69DE6BA2
:103EA800C86BC96BCA6BCB6BD46BD56B0A6B0B6BCE
:103EB8000C6B0D6B066B076B086B096BD26BD36BC6
:103EC800DC6B010EDB6FD06BD16BEE6BEF6BC86BED
:103ED800C96BCA6BCB6B0395026B036B046B056BE9
:103EE800006B016B070ED76FD66B010ED96FD86FB9
:103EF800E069A5C0A4F2126B100EED6F0001A55188
:103F08001AE1FF0E7D6F050E7E6FA00E7F6F270EE4
:103F1800806FBE0E816F330E826F36EC1CF0BAECE8
:103F280031F002011C6B080E186FE60E196FD30EE4
:103F38001A6F330E19D0FF0E7D6F050E7E6F200E9F
:103F48007F6FA20E806FD30E816F190E826F36ECD1
:103F58001CF0EDEC31F002011C6B280E186F760E88
:103F6800196FE80E1A6F190E1B6F010EE16FDF6BE8
:103F78006FEC2BF00201A56BA66B1D0E0001646FA0
:103F8800020E656F676B666B696B690E686FDCECB8
:103F980038F0030E0201956FE80E946F070E976FC5
:103FA800D00E966F130E996F880E986F170E9B6F31
:103FB800700E9A6F070EA16FD00EA06F200EA36F20
:103FC800400EA26F9D6F9C6B9F6F9E6B0001976B5D
:103FD800966B68EF1BF0050EE126000EE222020147
:103FE80003A103A529D0FF0EE36A0ED0FF0EE3500C
:103FF800020DA80EF324D96E020EF420DA6E020E1A
:10400800DE1808E0FF0EE32AFF0EE3CF47F0A751C2
:10401800475CECE3FF0EE350A7190EE1A751020D30
:10402800A80EF324D96E020EF420DA6E020EDF6EAB
:10403800100EA76101D0A72B03A574D0CF5106E1BC
:10404800CC29FF0ECD590F0ECE5921E3CCC264F016
:10405800CDC265F0CEC266F0CFC267F07D0E00011A
:10406800686F696B6A6B6B6B0BEC30F064C04EF079
:1040780065C04FF066C050F067C051F00C0ED89084
:104088004E364F3650365136E82EF9D728D0CCC2A6
:104098004EF0CDC24FF0CEC250F0CFC251F00C0E50
:1040A800D8904E364F3650365136E82EF9D74EC096
:1040B80064F04FC065F050C066F051C067F07D0EE7
:1040C8000001686F696B6A6B6B6B0BEC30F064C056
:1040D8004EF065C04FF066C050F067C051F0FB0E5F
:1040E8004EC0E3FFFC0E4FC0E3FFFD0E50C0E3FFE0
:1040F800FE0E51C0E3FFE150FB0FD96EE250DA6EBD
:10410800FF0EDA22DECF71F0DECF72F0DECF73F071
:10411800DECF74F00201E75160EC36F00201E7519E
:1041280049EC2EF0FA0EE126FF0EE222FF0CA86BF6
:10413800A96B96390F0BA76F010EA86F51D098C0C5
:104148006EF099C06FF09AC070F09BC071F0A8C073
:1041580072F0010E736FA1C074F0975122EC2CF02D
:10416800B40E806F010E816F9CC082F09DC083F0F9
:1041780019EC39F0A96B9E519F25D96E000EA0212C
:10418800DA6EA851A26FA36BA23BA33BF00EA31754
:10419800A2510F0BA313F00EA21794C0A4F095C060
:1041A800A5F0A251A427A351A523A951A427000E25
:1041B800A523F00EA425E96EFF0EA521EA6EEF50A7
:1041C800A66FB40EA925E96EEA6A010EEA22EF503D
:1041D800A619DF6E9E2BA92B0F0EA965CCD7A82B8D
:1041E800A851A75DACE296C0A2F00F0EA217D8B4F2
:1041F8000F0C98C06EF099C06FF09AC070F09BC019
:1042080071F0A8C072F0010E736FA1C074F09751DD
:1042180022EC2CF0B40E806F010E816F9CC082F0EE
:104228009DC083F019EC39F0A96B23D09E519F25CE
:10423800D96E000EA021DA6EA751100D94C0A2F01D
:1042480095C0A3F0F350A227F450A323A951A225A7
:10425800E96E000EA321EA6EEF50A46FB40EA925F3
:10426800E96EEA6A010EEA22EF50A419DF6E9E2B6E
:10427800A92B96C0A2F00F0EA217A251A95DD6E3F2
:10428800120070C0D9FF71C0DAFFDF50766F704B33
:10429800712B70C0D9FF71C0DAFFFF0EDE14726F88
:1042A800FF0EDE14736FFF0EDE14746F000EDE1443
:1042B800756F72C064F073C065F074C066F075C045
:1042C80067F0640E686F696B6A6B6B6B8DEC2EF030
:1042D80064C072F065C073F066C074F067C075F0B2
:1042E800030E7027000E712372C064F073C065F06E
:1042F80074C066F075C067F0A5EC33F000090AE1F8
:104308000201A751020DA90EF324D96E020EF42062
:10431800DA6EDF86000176510F0B48EC3BF000099E
:104328000AE10201A751020DA90EF324D96E020E6B
:10433800F420DA6EDF8800017639070B3EEC3BF09B
:1043480000090AE10201A751020DA90EF324D96E52
:10435800020EF420DA6EDF8A0201A751020DA90EBF
:10436800F324D96E020EF420DA6EDFA829D0A75103
:10437800020DA90EF324D96E020EF420DA6EDFA620
:104388001FD0A751020DA90EF324D96E020EF420F6
:10439800DA6EDFAA15D000017639070B0201EF6F3C
:1043A80072C064F073C065F074C066F075C067F0E1
:1043B800000176510F0B686F28EC3BF00201038F68
:1043C80070C070F071C071F0120000019A699B69A9
:1043D8009C699D699E6B5BD000019E510E0D040E79
:1043E800F324D96E040EF420DA6EDE044EE19E51F9
:1043F8000E0D080EF324D96E040EF420DA6EDE508A
:10440800DE10DE10DE1041E09E510E0D080EF32482
:10441800D96E040EF420DA6EDE509A5DDE509B5998
:10442800DE509C59DE509D5930E39E510E0D050E0D
:10443800F324D96E040EF420DA6EDF500F0B966F5A
:1044480096510201DF5D21E300019E510E0D050E1C
:10445800F324D96E040EF420DA6EDF380F0B966F52
:104468000201DF510001965D10E39E510E0D080E0A
:10447800F324D96E040EF420DA6EDECF9AF0DECF84
:104488009BF0DECF9CF0DECF9DF000019E2B9E516D
:104498000201ED5DA1E20251F00B0609026F9AC01C
:1044A80096F09BC097F09CC098F09DC099F00C0EB8
:1044B800D89000019637973798379937E82EF8D76C
:1044C80096C064F097C065F098C066F099C067F030
:1044D8007D0E686F696B6A6B6B6B0BEC30F064C0B8
:1044E80071F065C072F066C073F067C074F00201C5
:1044F800E65160EC36F00201E65149EF2EF0E65243
:10450800E652E652E652020100950289F00E0217C1
:10451800D06BD16BEE6B03A574D0CF5106E1CC29DB
:10452800FF0ECD590F0ECE5921E3CCC264F0CDC297
:1045380065F0CEC266F0CFC267F07D0E0001686FED
:10454800696B6A6B6B6B0BEC30F064C04EF065C046
:104558004FF066C050F067C051F00C0ED8904E3640
:104568004F3650365136E82EF9D728D0CCC24EF007
:10457800CDC24FF0CEC250F0CFC251F00C0ED89041
:104588004E364F3650365136E82EF9D74EC064F0C5
:104598004FC065F050C066F051C067F07D0E000155
:1045A800686F696B6A6B6B6B0BEC30F064C04EF034
:1045B80065C04FF066C050F067C051F0FC0E4EC0A9
:1045C800E3FFFD0E4FC0E3FFFE0E50C0E3FFFF0EFA
:1045D80051C0E3FFE150FC0FD96EE250DA6EFF0ED6
:1045E800DA22DECF71F0DECF72F0DECF73F0DECFED
:1045F80074F00201E75160EC36F00201E75149EC32
:104608002EF00001EA51EB110BE001D809D00500AA
:10461800FA6EEA51FD6EEB51FE6EFF6AFA50010C1C
:10462800FB0EE126FF0EE222FF0C0001DA6BE00E22
:10463800646F040E656F676B666B010E696F0F0E12
:10464800686FDCEC38F01F0ED917FC0ED917E30E93
:10465800D91724EEE0F0D9C0DFFFDA2BDB6BDB5192
:104668005908D96E000ED8A0E82A0208DA6EE00EC2
:10467800D36F040ED46FDA51D327000ED423DB5145
:10468800D325E96E000ED421EA6EDFCFEFFFDB2BD6
:10469800070EDB65E4D7080EDA27DB6BDB51610810
:1046A800D96E000ED8A0E82A0208DA6EE00ED36FA1
:1046B800040ED46FDA51D327000ED423DB51D3254F
:1046C800E96E000ED421EA6EDFCFEFFFDB2B070E79
:1046D800DB65E4D7080EDA2778697769ACEC39F03E
:1046E80077C0D2F278C0D3F2E00EDA25646F656B3A
:1046F800040E6523D20E666F020E676F696B020E99
:10470800686FFFEC33F0020EDA27420ECA6F020E12
:10471800CB6FE00ECC6F040ECD6FDAC0CEF054EC48
:1047280034F0CAC0D5F0CBC0D6F0CCC0D7F0CDC0DD
:10473800D8F0E00EDA25646F656B040E6523D50E9C
:10474800666F676B696B040E686FFFEC33F0040EDD
:10475800DA27DA511200666F000166510E0D040E59
:10476800F324D96E040EF420DA6E64C0DFFF6651BC
:104778000E0D040EF324D96E040EF420DA6EDF5009
:104788000CE166510E0D080EF324D96E040EF420C8
:10479800DA6EDE6ADE6ADE6ADD6A676B4ED0675102
:1047A8000E0D050EF324D96E040EF420DA6EDF50D8
:1047B8000F0B0001656F0201EB510001655D16E208
:1047C80067510E0D040EF324D96E040EF420DA6E30
:1047D800DE040CE167510E0D050EF324D96E040EAC
:1047E800F420DA6EDF500F0B0201EB6F0001675106
:1047F8000E0D050EF324D96E040EF420DA6EDF38A0
:104808000F0B0201EC6117D0000167510E0D040E69
:10481800F324D96E040EF420DA6EDE040CE167513D
:104828000E0D050EF324D96E040EF420DA6EDF386F
:104838000F0B0201EC6F0001672B0201ED51000123
:10484800675DADE30201DF51EC5D02E2ECC2DFF22D
:10485800EB51DF5DD8A0EBC2DFF2120021EEC8F009
:1048680000EE9BF00F0EDBCFEBFFE806FCE2AB0E91
:10487800646F656B676B666B696B100E686FDCEC59
:1048880038F0AB0E806F816B94C082F095C083F0D6
:1048980019EC39F0ABBF0CD0AB0E646F656B96C0EA
:1048A80066F097C067F0100E686F8DEC35F01ED07B
:1048B800AB0E646F656B96C066F097C067F0100E1C
:1048C800686F8DEC35F0BB6BBB519B0FD96EDA6A04
:1048D800DF509A6FBB519625D96E000E9721DA6E7C
:1048E8009A51DF1ABB2B0F0EBB65EED796C0D9FFC6
:1048F80097C0DAFFDFBE0CD096C064F097C065F0B1
:1049080098C066F099C067F0100E686F8DEF35F0AB
:1049180096C064F097C065F098C066F099C067F0DB
:10492800100E686F8DEC35F0BB6BBB519825D96EB6
:10493800000E9921DA6EBB519B0FE96EEA6AEF50BF
:104948009A6FBB519825E96E000E9921EA6EEF50D7
:104958009A19DF6EBB2B0F0EBB65E7D70F0C666F7E
:10496800070E0201EB6FEC6B000166510E0D050E90
:10497800F324D96E040EF420DA6E64C0DFFF6651AA
:104988000E0D0D0EF324D96E040EF420DA6E000E0F
:10499800DB82676B4ED067510E0D050EF324D96E7E
:1049A800040EF420DA6EDF500F0B0001656F020170
:1049B800EB510001655D16E267510E0D040EF324FC
:1049C800D96E040EF420DA6EDE040CE167510E0D88
:1049D800050EF324D96E040EF420DA6EDF500F0BA7
:1049E8000201EB6F000167510E0D050EF324D96E1D
:1049F800040EF420DA6EDF380F0B0201EC6117D0D9
:104A0800000167510E0D040EF324D96E040EF42034
:104A1800DA6EDE040CE167510E0D050EF324D96E33
:104A2800040EF420DA6EDF380F0B0201EC6F000180
:104A3800672B0201ED510001675DADE30201DF5113
:104A4800EC5D02E2ECC2DFF2EB51DF5DD8A0EBC215
:104A5800DFF21200E652020103B170D0D951D75DDE
:104A680052E342EC35F0516E0D0E5126FF0E51C047
:104A7800E3FFE350476E486A0201D451475CD551C1
:104A8800485833E3010E17EC33F000092BE1F00E20
:104A9800966F040E976FD4C298F0D3EC17F096C0B7
:104AA80047F097C048F0475048101CE102010251F6
:104AB800F00B0109026FD92BD9B142D0DF5140E088
:104AC800D951476E486AD751506E516A502A000E24
:104AD80051224750501803E14850511831E07BECFF
:104AE8002CF02ED0B7EC30F02BD087EC3BF0000147
:104AF800E851E91125E0646B656B666B040E676F1E
:104B080001D81ED012D0D951D75D1AE203B118D0FE
:104B180087EC3BF00001E851E91112E0000E646BEC
:104B2800656B666B676B01D80BD00500FA6EE851B0
:104B3800FD6EE951FE6EFF6AFA50120087EC3BF0F9
:104B4800E552E55212000001886989698A698B6912
:104B580095EC26F06CC084F06DC085F06EC086F0D0
:104B68006FC087F08C6B5AD08C51080D040EF3245B
:104B7800D96E030EF420DA6EDE044FE18C51080D75
:104B8800000EF324D96E030EF420DA6EDE50845D35
:104B9800DE508559DE508659DE5087590DE38C5119
:104BA800080D000EF324D96E030EF420DA6EDE6AC7
:104BB800DE6ADE6ADD6A31D08C51080D000EF324FE
:104BC800D96E030EF420DA6E8451DE5E8551DE5A0A
:104BD8008651DE5A8751DE5A8C51080D000EF32497
:104BE800D96E030EF420DA6E8851DE5C8951DE58E6
:104BF8008A51DE588B51DE5810E28C51080D000E98
:104C0800F324D96E030EF420DA6EDECF88F0DECFFF
:104C180089F0DECF8AF0DECF8BF08C2BEF518C5DE4
:104C2800A3E388C07CF089C07DF08AC07EF08BC089
:104C38007FF0120048EC3AF001C03EF002C03FF0AD
:104C48000001F2053DE1F26BEC513E5C0D6EED5159
:104C58003F580E6E0F6AD8A00F060F50106E3650D0
:104C68000D5C116E37500E58126E38500F58136E77
:104C780039501058146E3A501124156E3B501220BA
:104C8800166E3C501320176E3D501420186E000EFF
:104C98001524326E000E1620336E010E1720346E66
:104CA800000E1820356E3EC036F03FC037F0386A27
:104CB800396A3A6A3B6A3C6A3D6AEC6BED6B28D00C
:104CC800EC513E5C0D6EED513F580E6E0F6A106A46
:104CD80036500D5C116E37500E58126E38500F5802
:104CE800136E39501058146E3A501124326E3B50DE
:104CF8001220336E3C501320346E3D501420356E14
:104D08003250362633503722345038223550392223
:104D180032C009F033C00AF034C00BF035C00CF0D3
:104D2800120039EC3AF064C03EF065C03FF0F2057D
:104D38003DE1F26BEC513E5C706FED513F58716F85
:104D4800726BD8A072077251736F3650705D746FB2
:104D580037507159756F38507259766F3950735989
:104D6800776F3A507425786F3B507521796F3C50B6
:104D780076217A6F3D5077217B6F000E7825326E51
:104D8800000E7921336E010E7A21346E000E7B21DC
:104D9800356E3EC036F03FC037F0386A396A3A6A35
:104DA8003B6A3C6A3D6AEC6BED6B28D0EC513E5C8B
:104DB800706FED513F58716F726B736B3650705D49
:104DC800746F37507159756F38507259766F395002
:104DD8007359776F3A507425326E3B507521336E94
:104DE8003C507621346E3D507721356E3250362650
:104DF80033503722345038223550392232C06CF0C3
:104E080033C06DF034C06EF035C06FF01200256805
:104E18002668276828681EEC26F009C021F00AC019
:104E280022F00BC023F00CC024F0296A5AD0295074
:104E3800080D040EF324D96E030EF420DA6EDE0496
:104E48004FE12950080D000EF324D96E030EF4200B
:104E5800DA6EDE50215CDE502258DE502358DE50D8
:104E680024580DE32950080D000EF324D96E030EC3
:104E7800F420DA6EDE6ADE6ADE6ADD6A31D0295035
:104E8800080D000EF324D96E030EF420DA6E2150BB
:104E9800DE5E2250DE5A2350DE5A2450DE5A295054
:104EA800080D000EF324D96E030EF420DA6E255097
:104EB800DE5C2650DE582750DE582850DE5810E2B7
:104EC8002950080D000EF324D96E030EF420DA6E73
:104ED800DECF25F0DECF26F0DECF27F0DECF28F0BC
:104EE800292AEF51295CA3E325C019F026C01AF03E
:104EF80027C01BF028C01CF012000001826F816BD4
:104F080082C077F0786BACEC39F07729836F83C077
:104F180080F054D0846B47D084510E0D040EF324D6
:104F2800D96E040EF420DA6EDE043BE184510E0DD6
:104F3800080EF324D96E040EF420DA6EDE50DE106B
:104F4800DE10DE102EE184510E0D050EF324D96E0D
:104F5800040EF420DA6EDF500F0B00017C6F7C51D9
:104F68000201DF5D1EE3000184510E0D050EF324DE
:104F7800D96E040EF420DA6EDF380F0B7C6F020155
:104F8800DF5100017C5D0DE379510AE184510E0D7A
:104F98000C0EF324D96E040EF420DA6EDE0401E15F
:104FA80083070001842B8251845D02E28351B4E1BE
:104FB8008051831903E1090E816F02D08351AAE160
:104FC800845107E084057AC0D9FF7BC0DAFFDF6E21
:104FD80002D0090E816F8151120071C064F072C055
:104FE80065F073C066F074C067F0090E0001686F61
:104FF8003D0E696F6A6B6B6B0BEC30F064C079F037
:1050080065C07AF066C07BF067C07CF071C064F060
:1050180072C065F073C066F074C067F0090E686FFF
:105028003D0E696F6A6B6B6BE6EC32F064C075F02D
:1050380065C076F066C077F067C078F07BC07CF01A
:105048007AC07BF079C07AF0796B77C078F076C057
:1050580077F075C076F0756B75C064F076C065F052
:1050680077C066F078C067F0090E686F3D0E696F0B
:105078006A6B6B6B0BEC30F064C075F065C076F052
:1050880066C077F067C078F07551792776517A2332
:1050980077517B2378517C237BC066F0060E2AEC7F
:1050A8003AF07AC066F0070E2AEC3AF079C066F05A
:1050B800080E2AEF3AF06E6F0001695108E1060EFA
:1050C8006E19D8B41200070E6E1901E11200070E0E
:1050D8006E17010E691753EC39F06F6F6FAF03D07D
:1050E800010E6B6F01D06B6B6F51070B6D6F6B51BE
:1050F800691918E06D5108E06F51F80B666F010EE1
:105108002AEC3AF000016D6B695103E1780E6F17D4
:1051180004D06F51780B80096F6F6FC066F0010E75
:105128002AEC3AF000016D516E19D8B412006E5194
:1051380012E06A0510E1410E53EC39F06C6F6951C9
:1051480003E1300E6C1302D0CF0E6C176CC066F002
:10515800410E2AEC3AF0F80E00016F176E516F13EA
:105168006FC066F0010E2AEC3AF000016A05D8A477
:1051780012006E5105E041EC3CF00009FCE0120021
:10518800010E646F656B666B676BC7EF38F0120EC4
:1051980053EC39F0E26F700E666F120E2AEC3AF09B
:1051A8000001E251500B500AD8A412000101A75186
:1051B80057EC3AF01C0E53EC39F0E36F01019A51A9
:1051C80004E00001E2ABE3AD37D0130E53EC39F045
:1051D8000101A26F0001666B0D0E2AEC3AF05FEC3C
:1051E8003CF0000E07EC3CF00001E36B0DD0E351FE
:1051F8000101A325D96E000EA421DA6EFF0E07EC7B
:105208003CF0DF6E0001E32B0101A2510001E35DD8
:10521800EEE35DEC3CF00101A185190E53EC39F089
:105228000101B06F040E0001646F0101B0512BEC55
:1052380034F00101B06F02D00101A18796C169F075
:10524800000E00016A6F5FEC28F00101A193A3C171
:1052580066F1A4C167F1A2C168F14CEF00F000014A
:105268006A6F01019B5127E100016A51800A830F8F
:1052780002E2FD0E6A6F6A51800A700F02E30F0E98
:105288006A6F4D0E53EC39F0696FF80E691769852E
:1052980069C066F04D0E2AEC3AF000016AAF05D0FD
:1052A800030E6A276A51200902D06A517009666F95
:1052B800090E2AEF3AF000016A51800A7E0F02E2D5
:1052C800020E6A6F6A51800A6C0F02E3140E05D051
:1052D8006A51800A6E0F02E3110E6A6F0B0E53ECCF
:1052E80039F0686F4D0E53EC39F0696FF80E691795
:1052F800140E6A1906E1070E69130F0E6A6F689B90
:1053080004D06985FE0E6A27688B69C066F04D0E69
:105318002AEC3AF000016A518009666F090E2AECFE
:105328003AF068C066F00B0E2AEF3AF0020103B1BA
:1053380057D03BEC3CF0516E51B24ED002010251B5
:10534800F00B0509026F1BEC3AF03EEC3CF018C27A
:1053580076F019C277F01AC278F01BC279F0020110
:105368001C5140EC39F0020112512FE1850E1C2529
:10537800F66EF76AFF0EF722F86A000EF8220800A8
:10538800F5500001966F976BDBEC15F096C047F06F
:1053980097C048F0475048102BE087EC3BF080EC72
:1053A8003BF00001E851E91123E0000E646B656BE6
:1053B800666B676B01D81CD00500FA6EE851FD6E6C
:1053C800E951FE6EFF6AFA5012000251F00B09090A
:1053D800026F84EC32F00CD0010E0201F16F08D09C
:1053E80000A502D00095029980EC3BF087EC3BF0D9
:1053F800E5521200DC6F020103A102BF120002A9EC
:1054080012000001D65103E1D95101E0120042EC2B
:1054180035F0DA6FD951DA5D01E21200020106298E
:1054280008E1072906E1082904E1092902E10483C2
:10543800120002510F0B03E0125101E11200010E9C
:1054480017EC33F0DB6FDB5101E01200020E0201B2
:10545800121902E11BEC3AF0D6C0CAF0D7C0CBF063
:10546800D8C0CCF0D9C0CDF00001CE6BDC5107EC30
:105478000FF0F00E0001966F040E976FD4C298F0EB
:10548800D3EC17F096519711D8A412000201062BFD
:10549800000E0723082309230001DC0502E10201AD
:1054A80000810201008B0251F00B0109026F12000A
:1054B80000016A6B6B6B53D06B51020DA80EF3247D
:1054C800D96E020EF420DA6EDE2848E0FE0E646F14
:1054D80065696B51020DA80EF324D96E020EF420F3
:1054E800DA6EDF50666F676B645166276551672314
:1054F800940E6625F66EFF0E6721F76EF86A000EA9
:10550800F8220800F5506AC068F0696B6827000E39
:10551800692369BF05D0695127E1100E685D24E24F
:10552800FE0E646F65696B51020DA80EF324D96EE7
:10553800020EF420DA6EDF50666F676B64516627DF
:1055480065516723940E6625F66EFF0E6721F76E88
:10555800F86A000EF8220800F5506A276B2B020142
:10556800A75100016B5DA8E36A5112002A0E0001E1
:10557800646F560E656F666B0201E25128EC38F0D5
:10558800340E646F530E656F666B0201E35128ECAD
:1055980038F0DE0E646F3F0E656F666B0201E751EF
:1055A80028EC38F02A0E646F560E656F666B0201A0
:1055B800E45128EC38F0340E646F530E656F666B57
:1055C8000201E55128EC38F05C0E646F4A0E656FF5
:1055D800666B0201E85128EC38F0FA0E646F730E1E
:1055E800656F666B0201E65128EC38F0A80E646F0F
:1055F800620E656F666B0201EA5128EC38F0060E00
:10560800646F450E656F666B0201F35128EC38F044
:10561800020E646F210E656F666B0201E95128EF77
:1056280038F0E652E652E652E652020103B14ED095
:10563800020E121902E11BEC3AF00201EF51175D5C
:1056480004E3EF51175D176F01D0176B66EC3BF061
:1056580064C04EF065C04FF066C050F067C051F0AE
:10566800FC0E4EC0E3FFFD0E4FC0E3FFFE0E50C020
:10567800E3FFFF0E51C0E3FF0251F00B0309026F75
:105688003EEC3CF0E150FC0FD96EE250DA6EFF0EB2
:10569800DA22DECF76F0DECF77F0DECF78F0DECF1D
:1056A80079F00201175140EC39F0850E02011725F7
:1056B800F66EF76AFF0EF722F86A000EF822080065
:1056C800F5500001966F976BDBEC15F0FB0EE126A9
:1056D800FF0EE222FF0C070EEB6FEC6B0001656B0F
:1056E8004ED065510E0D050EF324D96E040EF4202C
:1056F800DA6EDF500F0B0001646F0201EB510001FD
:10570800645D16E265510E0D040EF324D96E040E85
:10571800F420DA6EDE040CE165510E0D050EF3245B
:10572800D96E040EF420DA6EDF500F0B0201EB6F16
:10573800000165510E0D050EF324D96E040EF420F8
:10574800DA6EDF380F0B0201EC6117D000016551EA
:105758000E0D040EF324D96E040EF420DA6EDE0466
:105768000CE165510E0D050EF324D96E040EF420DC
:10577800DA6EDF380F0B0201EC6F0001652B0201B6
:10578800ED510001655DADE31200F29E0001E16B91
:1057980050D0E151080D040EF324D96E030EF42005
:1057A800DA6EDE0444E1E151080D000EF324D96EEF
:1057B800030EF420DA6EDE50DE10DE10DE1037E164
:1057C800E151080D040EF324D96E030EF420DA6EAD
:1057D800DF6AE151080D060EF324D96E030EF4209A
:1057E800DA6EDE50DE1023E0F28EE151080D050E70
:1057F800F324D96E030EF420DA6EDF50E66EE15121
:10580800080D060EF324D96E030EF420DA6EDECFEF
:10581800DDF0DDCFDEF001D809D00500FA6EDD51EC
:10582800FD6EDE51FE6EFF6AFA501200F29E000114
:10583800E12BEF51E15DADE3F28E1200756F0001CF
:10584800766BB40E646F010E656F676B666B696B80
:10585800100E686FDCEC38F073C0B4F1050E7627D3
:10586800B40E7625D96EDA6A010EDA2275C0DFFF2A
:10587800762B745112E1B40E7625646F656B010EB8
:1058880065231E0E666F020E676F696B040E686FE4
:10589800FFEC33F0040E762710D0B40E7625646F33
:1058A800656B010E6523620E666F020E676F696B8A
:1058B800040E686FFFEC33F0EDD7B40E7625646FF5
:1058C800656B010E65236E0E666F676B696B040E60
:1058D800686FFFEC33F0040E7627762BB40E76252E
:1058E800D96EDA6A010EDA2272C0DFFF12000001F7
:1058F800656B0201DF51EB5D4AE2DF050001676F6E
:105908003AD0666B2BD066510E0D050EF324D96E76
:10591800040EF420DA6EDF500F0B0001646F64513F
:10592800675D1BE366510E0D050EF324D96E040E58
:10593800F420DA6EDF380F0B646F6751645D0DE396
:1059480066510E0D040EF324D96E040EF420DA6E9F
:10595800DE0403E1010E656F06D0662B0201ED51EE
:105968000001665DD0E3655106E167510201EB5D18
:1059780002E2000167070001655105E10201EB51F0
:105988000001675DBEE2650502E167C0DFF2000164
:1059980065511200820EF66E700EF76E000EF86EEC
:1059A80001EEC8F020EE30F00900F5CFEEFFDD5033
:1059B800D950FAE1220EF66E780EF76E000EF86EE8
:1059C80000EE52F020EE08F00900F5CFEEFFDD50B2
:1059D800D950FAE104EEE0F022EE1EF0EE6ADD5056
:1059E800D950FCE1DA50FAE104EE00F0E00EEE6A7C
:1059F800E806FDE103EE00F0A00EEE6AE806FDE120
:105A080002EE00F0F50EEE6AE806FDE101EE7DF02B
:105A18004B0EEE6AE806FDE100EEE8F00B0EEE6ACA
:105A2800E806FDE100EE32F0140EEE6AE806FDE14C
:105A380000016EEF2DF03F0E53EC39F0E26FE2A556
:105A480012000101A75157EC3AF00101A65157EC99
:105A58003AF05FEC3CF0000E07EC3CF0FF0E07EC70
:105A68003CF00101A26F0001E36B0DD0E35101018D
:105A7800A325D96E000EA421DA6EFF0E07EC3CF0C8
:105A8800DF6E0001E32B0101A2510001E35DEEE3AB
:105A98005DEC3CF096C169F0000E00016A6F5FECA6
:105AA80028F00101A193800EB06F9A0503E100016F
:105AB800E2A303D00101A18502D00101A195A1A50E
:105AC80062EF13F0A3C166F1A4C167F1A2C168F146
:105AD8004CEF00F0BDEC39F0828AF28EF28CB80EF1
